:020000040800F2
:1000000000500020FD260008E5210008ED21000831
:10001000F5210008FD21000805220008000000006D
:100020000000000000000000000000000D22000899
:1000300019220008000000002522000831220008D3
:1000400045270008452700084527000845270008E0
:1000500045270008452700084527000845270008D0
:1000600045270008452700084527000845270008C0
:1000700045270008452700084527000845270008B0
:1000800045270008452700084527000845270008A0
:100090004527000845270008452700084527000890
:1000A0004527000845270008452700084527000880
:1000B0004527000845270008452700084527000870
:1000C0004527000845270008452700083D2200086D
:1000D0004527000845270008452700084527000850
:1000E0005122000861220008452700080000000096
:1000F0000000000000000000000000000000000000
:0C01000000000000000000005FF808F1A3
:1001100010B5054C237833B9044B13B10448AFF341
:1001200000800123237010BDD801002000000000D2
:10013000E09A000808B5034B1BB103490348AFF32D
:10014000008008BD00000000DC010020E09A0008EB
:1001500010F8012B11F8013B012A28BF9A42F7D071
:10016000D01A7047034613F8012B002AFBD1181A46
:100170000138704781F0004102E000BF83F0004386
:1001800030B54FEA41044FEA430594EA050F08BF32
:1001900090EA020F1FBF54EA000C55EA020C7FEAF6
:1001A000645C7FEA655C00F0E2804FEA5454D4EB73
:1001B0005555B8BF6D420CDD2C4480EA020281EA3D
:1001C000030382EA000083EA010180EA020281EA75
:1001D0000303362D88BF30BD11F0004F4FEA0131C7
:1001E0004FF4801C4CEA113102D0404261EB4101D6
:1001F00013F0004F4FEA03334CEA133302D052425C
:1002000063EB430394EA050F00F0A780A4F1010417
:10021000D5F1200E0DDB02FA0EFC22FA05F2801851
:1002200041F1000103FA0EF2801843FA05F3594137
:100230000EE0A5F120050EF1200E012A03FA0EFCB6
:1002400028BF4CF0020C43FA05F3C01851EBE371E0
:1002500001F0004507D54FF0000EDCF1000C7EEBFD
:1002600000006EEB0101B1F5801F1BD3B1F5001F3B
:100270000CD349085FEA30004FEA3C0C04F101045A
:100280004FEA445212F5800F80F09A80BCF1004F83
:1002900008BF5FEA500C50F1000041EB045141EA05
:1002A000050130BD5FEA4C0C404141EB0101013CCE
:1002B00028BFB1F5801FE9D291F0000F04BF0146BD
:1002C0000020B1FA81F308BF2033A3F10B03B3F18F
:1002D00020020CDA0C3208DD02F1140CC2F10C021F
:1002E00001FA0CF021FA02F10CE002F11402D8BF7D
:1002F000C2F1200C01FA02F120FA0CFCDCBF41EA49
:100300000C019040E41AA2BF01EB0451294330BD17
:100310006FEA04041F3C1CDA0C340EDC04F11404F4
:10032000C4F1200220FA04F001FA02F340EA0300CB
:1003300021FA04F345EA030130BDC4F10C04C4F111
:10034000200220FA02F001FA04F340EA03002946F1
:1003500030BD21FA04F0294630BD94F0000F83F43B
:10036000801306BF81F480110134013D4EE77FEA1E
:10037000645C18BF7FEA655C29D094EA050F08BF6A
:1003800090EA020F05D054EA000C04BF194610464B
:1003900030BD91EA030F1EBF0021002030BD5FEA8F
:1003A000545C05D14000494128BF41F0004130BDB7
:1003B00014F580043CBF01F5801130BD01F000450B
:1003C00045F0FE4141F470014FF0000030BD7FEA7E
:1003D000645C1ABF194610467FEA655C1CBF0B4679
:1003E000024650EA013406BF52EA033591EA030F90
:1003F00041F4002130BD00BF90F0000F04BF002188
:10040000704730B54FF4806404F132044FF00005BA
:100410004FF0000150E700BF90F0000F04BF002133
:10042000704730B54FF4806404F1320410F0004599
:1004300048BF40424FF000013EE700BF42004FEA94
:10044000E2014FEA31014FEA02701FBF12F07F4311
:1004500093F07F4F81F06051704732F07F4208BFC8
:10046000704793F07F4F04BF41F40021704730B5CF
:100470004FF4607401F0004521F000411CE700BF1B
:1004800050EA010208BF704730B54FF000050AE09E
:1004900050EA010208BF704730B511F0004502D59F
:1004A000404261EB41014FF4806404F132045FEAA1
:1004B000915C3FF4D8AE4FF003025FEADC0C18BF4A
:1004C00003325FEADC0C18BF033202EBDC02C2F13C
:1004D000200300FA03FC20FA02F001FA03FE40EACE
:1004E0000E0021FA02F11444BDE600BF70B54FF0D2
:1004F000FF0C4CF4E06C1CEA11541DBF1CEA1355B0
:1005000094EA0C0F95EA0C0F00F0DEF82C4481EA17
:10051000030621EA4C5123EA4C5350EA013518BF37
:1005200052EA033541F4801143F4801338D0A0FB24
:1005300002CE4FF00005E1FB02E506F00042E0FBD1
:1005400003E54FF00006E1FB03569CF0000F18BFD7
:100550004EF0010EA4F1FF04B6F5007F64F540747F
:1005600004D25FEA4E0E6D4146EB060642EAC62112
:1005700041EA55514FEAC52040EA5E504FEACE2E7F
:10058000B4F1FD0C88BFBCF5E06F1ED8BEF1004F82
:1005900008BF5FEA500E50F1000041EB045170BDFE
:1005A00006F0004646EA010140EA020081EA030142
:1005B000B4EB5C04C2BFD4EB0C0541EA045170BD3E
:1005C00041F480114FF0000E013C00F3AB8014F1B8
:1005D000360FDEBF002001F0004170BDC4F1000401
:1005E000203C35DA0C341BDC04F11404C4F1200582
:1005F00000FA05F320FA04F001FA05F240EA0200DD
:1006000001F0004221F0004110EBD37021FA04F612
:1006100042EB06015EEA430E08BF20EAD37070BDCC
:10062000C4F10C04C4F1200500FA04F320FA05F02B
:1006300001FA04F240EA020001F0004110EBD3702D
:1006400041F100015EEA430E08BF20EAD37070BD9D
:10065000C4F1200500FA05F24EEA020E20FA04F376
:1006600001FA05F243EA020321FA04F001F0004125
:1006700021FA04F220EA020000EBD3705EEA430E96
:1006800008BF20EAD37070BD94F0000F0FD101F0C5
:100690000046400041EB010111F4801F08BF013CFE
:1006A000F7D041EA060195F0000F18BF704703F03C
:1006B0000046520043EB030313F4801F08BF013DC3
:1006C000F7D043EA0603704794EA0C0F0CEA13557F
:1006D00018BF95EA0C0F0CD050EA410618BF52EA39
:1006E0004306D1D181EA030101F000414FF000003F
:1006F00070BD50EA410606BF1046194652EA43064D
:1007000019D094EA0C0F02D150EA013613D195EAC0
:100710000C0F05D152EA03361CBF104619460AD108
:1007200081EA030101F0004141F0FE4141F4700112
:100730004FF0000070BD41F0FE4141F4780170BD02
:1007400070B54FF0FF0C4CF4E06C1CEA11541DBF67
:100750001CEA135594EA0C0F95EA0C0F00F0A7F869
:10076000A4EB050481EA030E52EA03354FEA013196
:1007700000F088804FEA03334FF0805545EA1313A9
:1007800043EA12634FEA022245EA111545EA106571
:100790004FEA00260EF000419D4208BF964244F108
:1007A000FD0404F5407402D25B084FEA3202B61A27
:1007B00065EB03055B084FEA32024FF480104FF4FB
:1007C000002CB6EB020E75EB030E22BFB61A75466F
:1007D00040EA0C005B084FEA3202B6EB020E75EB02
:1007E000030E22BFB61A754640EA5C005B084FEA6A
:1007F0003202B6EB020E75EB030E22BFB61A754637
:1008000040EA9C005B084FEA3202B6EB020E75EB41
:10081000030E22BFB61A754640EADC0055EA060E02
:1008200018D04FEA051545EA16754FEA06164FEA45
:10083000C30343EA52734FEAC2025FEA1C1CC0D1F1
:1008400011F4801F0BD141EA00014FF000004FF07E
:10085000004CB6E711F4801F04BF01430020B4F13F
:10086000FD0C88BFBCF5E06F3FF6AFAEB5EB030CF7
:1008700004BFB6EB020C5FEA500C50F1000041EBF4
:10088000045170BD0EF0004E4EEA113114EB5C04C1
:10089000C2BFD4EB0C0541EA045170BD41F4801194
:1008A0004FF0000E013C90E645EA060E8DE60CEA9C
:1008B000135594EA0C0F08BF95EA0C0F3FF43BAFB9
:1008C00094EA0C0F0AD150EA01347FF434AF95EA70
:1008D0000C0F7FF425AF104619462CE795EA0C0F54
:1008E00006D152EA03353FF4FDAE1046194622E721
:1008F00050EA410618BF52EA43067FF4C5AE50EAFB
:1009000041047FF40DAF52EA43057FF4EBAE12E7EA
:100910004FF0FF3C06E000BF4FF0010C02E000BFCB
:100920004FF0010C4DF804CD4FEA410C7FEA6C5CAE
:100930004FEA430C18BF7FEA6C5C1BD001B050EA51
:10094000410C0CBF52EA430C91EA030F02BF90EA3C
:10095000020F0020704710F1000F91EA030F58BFFB
:10096000994208BF90422CBFD8176FEAE37040F05D
:10097000010070474FEA410C7FEA6C5C02D150EAFB
:10098000013C07D14FEA430C7FEA6C5CD6D152EAB6
:10099000033CD3D05DF8040B704700BF844610467B
:1009A00062468C461946634600E000BF01B5FFF77A
:1009B000B7FF002848BF10F1000F01BD4DF808ED4A
:1009C000FFF7F4FF0CBF012000205DF808FB00BF1B
:1009D0004DF808EDFFF7EAFF34BF012000205DF875
:1009E00008FB00BF4DF808EDFFF7E0FF94BF0120C2
:1009F00000205DF808FB00BF4DF808EDFFF7CEFFC3
:100A000094BF012000205DF808FB00BF4DF808ED01
:100A1000FFF7C4FF34BF012000205DF808FB00BFD2
:100A20004FEA410C7FEA6C5C02D150EA013C0AD1EA
:100A30004FEA430C7FEA6C5C02D152EA033C02D1DC
:100A40004FF0000070474FF0010070474FEA41023D
:100A500012F5001215D211D56FF47873B3EB625210
:100A600012D94FEAC12343F0004343EA505311F037
:100A7000004F23FA02F018BF404270474FF00000C9
:100A8000704750EA013005D111F0004008BF6FF007
:100A9000004070474FF00000704700BF4FEA41022E
:100AA000B2F1E04324BFB3F5001CDCF1FE5C0DD9CC
:100AB00001F0004C4FEAC0024CEA5070B2F1004F16
:100AC00040EB830008BF20F00100704711F0804F19
:100AD00021D113F13872BCBF01F00040704741F4DE
:100AE00080114FEA5252C2F11802C2F1200C10FAE2
:100AF0000CF320FA02F018BF40F001004FEAC123C6
:100B00004FEAD32303FA0CFC40EA0C0023FA02F369
:100B10004FEA4303CCE77FEA625307D150EA01333F
:100B20001EBF4FF0FE4040F44000704701F000400F
:100B300040F0FE4040F40000704700BF80F00040ED
:100B400002E000BF81F0004142001FBF5FEA4103A5
:100B500092EA030F7FEA226C7FEA236C6AD04FEAA5
:100B60001262D2EB1363C1BFD218414048404140EA
:100B7000B8BF5B42192B88BF704710F0004F40F49C
:100B8000000020F07F4018BF404211F0004F41F4B8
:100B9000000121F07F4118BF494292EA030F3FD084
:100BA000A2F1010241FA03FC10EB0C00C3F1200397
:100BB00001FA03F100F0004302D5494260EB400026
:100BC000B0F5000F13D3B0F1807F06D340084FEA91
:100BD000310102F10102FE2A51D2B1F1004F40EB86
:100BE000C25008BF20F0010040EA030070474900EE
:100BF00040EB0000013A28BFB0F5000FEDD2B0FA8B
:100C000080FCACF1080CB2EB0C0200FA0CF0AABFAD
:100C100000EBC25052421843BCBFD040184370474B
:100C200092F0000F81F4000106BF80F40000013251
:100C3000013BB5E74FEA41037FEA226C18BF7FEA28
:100C4000236C21D092EA030F04D092F0000F08BF6A
:100C50000846704790EA010F1CBF0020704712F051
:100C60007F4F04D1400028BF40F00040704712F190
:100C700000723CBF00F50000704700F0004343F0F5
:100C8000FE4040F4000070477FEA226216BF08462B
:100C90007FEA23630146420206BF5FEA412390EAEE
:100CA000010F40F4800070474FF0000304E000BFE4
:100CB00010F0004348BF40425FEA000C08BF704795
:100CC00043F0964301464FF000001CE050EA010259
:100CD00008BF70474FF000030AE000BF50EA01026E
:100CE00008BF704711F0004302D5404261EB41015B
:100CF0005FEA010C02BF84460146002043F0B64380
:100D000008BFA3F18053A3F50003BCFA8CF2083AA4
:100D1000A3EBC25310DB01FA02FC634400FA02FCAD
:100D2000C2F12002BCF1004F20FA02F243EB0200B4
:100D300008BF20F00100704702F1200201FA02FC16
:100D4000C2F1200250EA4C0021FA02F243EB020009
:100D500008BF20EADC7070474FF0FF3C06E000BFA0
:100D60004FF0010C02E000BF4FF0010C4DF804CD34
:100D70004FEA40024FEA41037FEA226C18BF7FEA44
:100D8000236C11D001B052EA530C18BF90EA010F46
:100D900058BFB2EB030088BFC81738BF6FEAE170D5
:100DA00018BF40F0010070477FEA226C02D15FEA71
:100DB000402C05D17FEA236CE4D15FEA412CE1D0DD
:100DC0005DF8040B704700BF844608466146FFE7A4
:100DD0000FB5FFF7C9FF002848BF10F1000F0FBD86
:100DE0004DF808EDFFF7F4FF0CBF012000205DF87F
:100DF00008FB00BF4DF808EDFFF7EAFF34BF012004
:100E000000205DF808FB00BF4DF808EDFFF7E0FF9C
:100E100094BF012000205DF808FB00BF4DF808EDED
:100E2000FFF7D2FF94BF012000205DF808FB00BF50
:100E30004DF808EDFFF7C8FF34BF012000205DF832
:100E400008FB00BF4FEA4002B2F1FE4F0FD34FF054
:100E50009E03B3EB12620DD94FEA002343F0004327
:100E600010F0004F23FA02F018BF404270474FF0D5
:100E70000000704712F1610F01D1420205D110F05C
:100E8000004008BF6FF0004070474FF0000070470F
:100E900042000ED2B2F1FE4F0BD34FF09E03B3EBE4
:100EA000126209D44FEA002343F0004323FA02F010
:100EB00070474FF00000704712F1610F01D14202FC
:100EC00002D14FF0FF3070474FF00000704700BF75
:100ED00080B58EB00AAFF860084611461A46034640
:100EE0007B810B463B811346FB801D4B1B78002BFF
:100EF00019D039897A8900230893002307930023A6
:100F0000069300230593BB8C04933B8C0393BB8B0C
:100F100002933B8B0193FB8800930B46F9680120F9
:100F200000F020F818E039897A890023089300231B
:100F300007930023069300230593BB8C04933B8CFB
:100F40000393BB8B02933B8B0193FB8800930B466F
:100F5000F968002000F006F800BF1037BD4680BDDC
:100F60000000002080B584B000AFB96011461A4679
:100F70000346FB730B46BB811346FB801A4ABB89B1
:100F800013801A4AFB881380194A3B8B1380194A35
:100F9000BB681360184ABB8B1380174A3B8C538085
:100FA000154ABB8C9380144A3B8DD380124ABB8D6B
:100FB0001381114A3B8E53810F4ABB8E93810E4A97
:100FC0003B8FD381FB7B002B03D00C4B00221A708C
:100FD00002E00A4B10221A700421142000F010F8CD
:100FE00000BF1037BD4680BDF6010020F80100208B
:100FF000FA0100200C020020FC0100201002002059
:1010000080B586B000AF03460A46FB711346BB713C
:10101000BB79012B06D9774B1B7843F00803DAB272
:10102000744B1A70744ABB791370FA79FB794033A8
:101030004021002000F064F9704B1B78002B09D090
:10104000BB79012B06D16B4B1B7843F00403DAB25A
:10105000684B1A7000F0E4F803237B610123FB6006
:10106000674B1B78002B1BD0664B1A88664B1B887E
:1010700013439AB2654B1B8813439AB2644B1B8887
:1010800013439AB2624B5B8813439AB2604B9B88BE
:1010900013439AB25E4BDB8813439BB2BB602AE0DA
:1010A000584B1A88584B1B8813439AB2574B1B88CE
:1010B00013439AB2564B1B8813439AB2544B5B8826
:1010C00013439AB2524B9B8813439AB2504BDB881E
:1010D00013439AB24E4B1B8913439AB24C4B5B8914
:1010E00013439AB24A4B9B8913439AB2484BDB890C
:1010F00013439BB2BB60474B1B6807F108021146C4
:10110000184601F049FD322001F080FB414B1B687D
:101110003C4A11880022184601F0D9FE3D4B1B685D
:101120003A4A11880022184601F0D1FE364B1B883E
:10113000FF2B07D0374B1B68334A11880022184613
:1011400001F0C5FE2B4B1B7803F01003002B15D1CB
:10115000032000F0F5F9052001F058FB032000F012
:10116000EFF9052001F052FB032000F0E9F901201E
:1011700001F04CFB022000F0E3F91DE01D4B1B7851
:1011800043F02003DBB2184600F055F9052001F0CA
:101190003DFB184B1B7843F02003DBB2184600F0F0
:1011A0004AF9012001F032FB124B1B7843F0200377
:1011B000DBB2184600F03FF90E4B1B7843F02003DA
:1011C000DBB2184600F037F9134B04221A7000F016
:1011D000F1F800F0B3F8114B02221A700F4B1B7894
:1011E00043F00403DBB2184600F025F900BF1837BE
:1011F000BD4680BD1002002013020020F401002033
:1012000000000020F6010020F8010020FA01002073
:10121000FC0100200C02002011020020120200201C
:1012200080B487B000AF2F4B1B682F4A93420CD17C
:101230002E4B9B692D4A43F0040393612B4B9B6912
:1012400003F004037B617B6946E0264B1B68284A58
:1012500093420CD1254B9B69244A43F008039361C8
:10126000224B9B6903F008033B613B6934E01D4B53
:101270001B68204A93420CD11C4B9B691B4A43F0CC
:1012800010039361194B9B6903F01003FB60FB682B
:1012900022E0144B1B68184A93420CD1134B9B69F4
:1012A000124A43F020039361104B9B6903F0200323
:1012B000BB60BB6810E00B4B1B68104A93420BD11C
:1012C0000A4B9B69094A43F040039361074B9B69B2
:1012D00003F040037B607B6800BF1C37BD4680BCC9
:1012E000704700BF0C0200200008014000100240BF
:1012F000000C0140001001400014014000180140A2
:1013000080B485B000AFF860B9607A603B60FB687C
:10131000DAB2094B1A70BB68DAB2074B5A707B68B5
:10132000DAB2054B9A703B68DAB2034BDA7000BF51
:101330001437BD4680BC70471402002080B500AF52
:10134000012000F078F8022001F060FA00BF80BDB3
:1013500080B584B000AF03460A46FB711346BB71EB
:101360000423FB60BB79FA689A4203D8FB68DBB2BE
:10137000013BBB710D4B1B78BA799A4203D30B4BDF
:101380001B78013BBB71BB79094AD25CFB791344E2
:10139000DBB25BB263F07F035BB2DBB2184600F0F6
:1013A0004AF800BF1037BD4680BD00BF13020020C1
:1013B0001402002080B500AF084B1B7843F00403F3
:1013C000DAB2064B1A70054B1B7843F00803DBB208
:1013D000184600F030F800BF80BD00BF11020020A9
:1013E00080B586B000AF78607B68002B01D1002308
:1013F0001DE07B687B617868FEF7B4FE38610023EE
:10140000FB600CE07B695A1C7A611B78184600F07F
:1014100020F80346002B08D0FB680133FB603B69D2
:101420005A1E3A61002BEDD100E000BFFB68184660
:101430001837BD4680BD80B582B000AF0346FB7152
:10144000FB790021184600F013F800BF0837BD46AD
:1014500080BD80B582B000AF0346FB71FB790121EE
:10146000184600F005F8012318460837BD4680BD30
:1014700080B582B000AF03460A46FB711346BB71CC
:10148000164B1B68164A1188BA79184601F01FFDE1
:10149000144B1B88FF2B07D0104B1B68114A118877
:1014A0000022184601F013FD0F4B1B7803F01003C8
:1014B000002B04D0FB79184600F06CF809E0FB79AA
:1014C0001B09DBB2184600F03BF8FB79184600F028
:1014D00037F800BF0837BD4680BD00BF0C020020B2
:1014E000F6010020F80100201002002080B500AFB6
:1014F000114B1B68114A11880022184601F0E7FCC5
:10150000012001F083F90C4B1B680C4A1188012261
:10151000184601F0DCFC012001F078F9064B1B684D
:10152000064A11880022184601F0D1FC012001F082
:101530006DF900BF80BD00BF0C020020FA01002041
:1015400080B584B000AF0346FB710023FB6013E05D
:101550000E4B18680E4AFB6832F81310FA79FB68D4
:1015600042FA03F3DBB203F00103DBB21A4601F0E7
:10157000AEFCFB680133FB60FB68032BE8DDFFF783
:10158000B5FF00BF1037BD4680BD00BF0C02002074
:10159000FC01002080B584B000AF0346FB7100233E
:1015A000FB6013E00E4B18680E4AFB6832F813100C
:1015B000FA79FB6842FA03F3DBB203F00103DBB212
:1015C0001A4601F084FCFB680133FB60FB68072BC3
:1015D000E8DDFFF78BFF00BF1037BD4680BD00BFC1
:1015E0000C020020FC01002080B582B000AF034651
:1015F000FB71FB791A464FF48061034801F067FCE8
:1016000000BF0837BD4680BD0008014080B582B0EC
:1016100000AF786039600120FFF7E6FF2149786864
:10162000FEF796FD0346002B03D1386800F081F8E1
:101630002AE01D497868FEF78BFD0346002B03D195
:10164000386800F091F81FE018497868FEF780FDCF
:101650000346002B03D1386800F0A1F814E01449C8
:101660007868FEF775FD0346002B03D1386800F05B
:10167000A6F809E00F497868FEF76AFD0346002BDB
:1016800002D1386800F0ABF801F0B6F802463B68CA
:10169000DA6001F0B1F802463B681A6100BF083712
:1016A000BD4680BDF89A0008009B00080C9B00080E
:1016B000149B0008189B000880B586B000AF7860C6
:1016C00039607B681B78102B01D900232DE07B68E3
:1016D0001B78FB600023FB757B680133FA681946B1
:1016E000386806F0B8F93A68FB68134400221A70AB
:1016F00000233B610AE03B6901337A6813441A789E
:10170000FB7D5340FB753B6901333B613A69FB68E4
:101710009A42F0D3FB6801337A6813441B78FA7D50
:101720009A4201D0002300E0012318461837BD4635
:1017300080BD80B582B000AF78607B681B68012BEC
:1017400003D07B681B68002B0AD17B681B7A0133AE
:10175000DAB27B681A727B681B7A184600F09EF931
:1017600000BF0837BD4680BD80B582B000AF78604D
:101770007B681B68012B03D07B681B68002B0AD198
:101780007B681B7A013BDAB27B681A727B681B7A32
:10179000184600F083F900BF0837BD4680BD80B50C
:1017A00082B000AF78607B6800221A607B681B689B
:1017B000184600F0A3F900BF0837BD4680BD80B5CC
:1017C00082B000AF78607B6801221A607B681B687A
:1017D000184600F093F900BF0837BD4680BD80B5BC
:1017E00082B000AF78607B684FF0FF321A607B6890
:1017F0001B68184600F082F900BF0837BD4680BD5F
:1018000080B588B000AF07F1100300221A605A605B
:101810009A60DA60374B9B69364A43F01003936154
:10182000344B9B6903F01003FB60FB68314B9B69F1
:10183000304A43F0200393612E4B9B6903F0200351
:10184000BB60BB682B4B9B692A4A43F0040393613E
:10185000284B9B6903F004037B607B68254B9B69E5
:10186000244A43F008039361224B9B6903F0080369
:101870003B603B68002240F606711F4801F027FBE1
:10188000012203211D4801F022FB00224FF44051A8
:101890001A4801F01CFB40F606733B6101237B6193
:1018A0000023BB610223FB6107F1100319461248B4
:1018B00001F072F943F203033B6101237B610023D2
:1018C000BB610223FB6107F1100319460B4801F0CD
:1018D00063F94FF480633B61094B7B610223BB6179
:1018E00007F110031946054801F056F900BF2037EB
:1018F000BD4680BD0010024000080140000C0140C0
:101900000000111080B500AF124B134A1A60114B42
:10191000124A5A600F4B00229A600E4B0022DA6086
:101920000C4B4FF480421A610A4B00225A61094B5A
:1019300000229A61074B0022DA61064B00221A62EC
:10194000044801F0F5FA0346002B01D000F022FB19
:1019500000BF80BD1802002000540040A086010096
:1019600080B58AB000AF786007F1140300221A60D6
:101970005A609A60DA607B681B681D4A934232D1D4
:101980001C4B9B691B4A43F008039361194B9B69ED
:1019900003F008033B613B694FF440737B61122302
:1019A000BB6103233B6207F114031946124801F09F
:1019B000F3F8124B5B687B627B6A43F0E0637B6207
:1019C0007B6A43F002037B620C4A7B6A5360094BDB
:1019D000DB69084A43F40013D361064BDB6903F467
:1019E0000013FB60FB6800BF2837BD4680BD00BF09
:1019F0000054004000100240000C01400000014073
:101A000080B582B000AF0346FB71FB791A464FF4F4
:101A10008061034801F05BFA00BF0837BD4680BD16
:101A20000008014080B588B000AF78600021102028
:101A3000FFF78EFC15497868FFF7DCF90346002BA9
:101A40000AD07868FFF7FEF9024607F10C03104947
:101A5000184605F00FFF09E07868FFF7F3F9024632
:101A600007F10C030B49184605F004FF07F10C03BE
:101A70001846FFF7B5FCDF20FFF7EBFC0648FFF741
:101A8000AFFC00BF2037BD4680BD00BF0000204135
:101A90001C9B0008209B0008249B000880B588B090
:101AA00000AF0346FB7100210620FFF751FCFB79D4
:101AB000092B07D8FA7907F10C030D49184605F0F0
:101AC000D9FE06E0FA7907F10C030A49184605F039
:101AD000D1FE07F10C031846FFF782FCDF20FFF769
:101AE000B8FC0548FFF77CFC00BF2037BD4680BD31
:101AF0001C9B0008209B0008249B000880B588B030
:101B000000AF7860304A07F1180392E8030083E8D9
:101B100003002E4A07F1100392E8030083E8030054
:101B20002B4A07F1080392E8030083E803007B686F
:101B3000002B14D107F118031846FEF713FB0346D8
:101B40005B08DBB2C3F10A03DBB203211846FFF7DF
:101B5000FFFB07F118031846FFF742FC2FE07B68F4
:101B6000012B14D107F110031846FEF7FBFA0346C8
:101B70005B08DBB2C3F10A03DBB203211846FFF7AF
:101B8000E7FB07F110031846FFF72AFC17E07B6814
:101B9000B3F1FF3F13D107F108031846FEF7E2FA4D
:101BA00003465B08DBB2C3F10A03DBB2032118462C
:101BB000FFF7CEFB07F108031846FFF711FC00BF43
:101BC0002037BD4680BD00BF289B0008309B000821
:101BD000389B000880B58AB004AF7860384A07F1B6
:101BE000100392E8030018600433198002330A0CD2
:101BF0001A70344A07F10C03126811461980023337
:101C0000120C1A70304BBB60802303934023029365
:101C100020230193102300934FF48043FF224FF4BD
:101C200000412A48FFF754F9052000F0EFFD00219C
:101C30000020FFF78DFB07F110031846FFF7D0FBDC
:101C400000210E20FFF784FB07F10C031846FFF775
:101C5000C7FB07F108031846FEF784FA03465B0842
:101C6000DBB2C3F10A03DBB203211846FFF770FBB6
:101C700007F108031846FFF7B3FB0120FFF7C0FE8A
:101C80007B685B681846FFF703F90346DAB27B68A6
:101C90001B7A1946104600F037FC7B685B681846D3
:101CA000FFF7C0FE7B681B7A1846FFF7F7FE7B68DC
:101CB0001B681846FFF722FF00BF1837BD4680BDDE
:101CC000409B0008489B00084F666600000C0140DE
:101CD000B0B58CB000AF00F037FD00F0ADF8FFF705
:101CE0008FFD00F0CDF9FFF70DFE00F059F900F07F
:101CF00000F9344C3B46184604F04BFB25463C4665
:101D00000FCC0FC50FCC0FC594E8070085E807007E
:101D10002C4B2D4A9A612B4B2C4A1A60294B0122DD
:101D20009A80284B294A9A60264B02229A81254B99
:101D3000264A1A61234B4FF480629A8200BF2148E1
:101D400004F0B3FE0346C82BF9D1214B01221A80BF
:101D50001C4804F02EFE1F4800F0A2FB1D48FFF7B0
:101D600039FF1D4B1B78DBB2002B09D000F04CF87B
:101D7000194B00221A7010220021184805F0DDFDD1
:101D800000F03AFD0246134BDB68D31A43F65F328C
:101D9000934206D900F024F800F02EFD03460D4AC8
:101DA000D36000F029FD02460A4B1B69D31AB3F534
:101DB000FA6FD6D300F01EF800F01EFD0346054A68
:101DC0001361CEE76C020020DC020020000C014011
:101DD00098020020B0020020AC0200209C020020EB
:101DE00080B500AF024800F02DFC00BF80BD00BFF1
:101DF000B002002080B500AF024800F0A7FB00BF92
:101E000080BD00BFB002002080B584B000AF3B466B
:101E100019460748FFF750FC0346002B04D03B4609
:101E200004491846FFF7F2FB00BF1037BD4680BDDE
:101E30009C020020B002002080B594B000AF07F1F2
:101E4000280328220021184605F077FD07F1140326
:101E500000221A605A609A60DA601A613B1D002203
:101E60001A605A609A60DA600923BB624FF48033CB
:101E7000FB6200233B630123BB6301233B6402231A
:101E80007B644FF48033BB644FF4E013FB6407F1D1
:101E90002803184602F0C6F80346002B01D000F0D4
:101EA00079F80F237B610223BB610023FB614FF4B0
:101EB00080633B6200237B6207F114030221184612
:101EC00002F032FB0346002B01D000F063F801233F
:101ED0007B604FF40073BB603B1D184602F0B2FC00
:101EE0000346002B01D000F055F800BF5037BD4627
:101EF00080BD80B500AF00220021232000F09DFDB1
:101F0000232000F0B6FD00220021282000F095FDDE
:101F1000282000F0AEFD00220021292000F08DFDD8
:101F2000292000F0A6FD00BF80BD80B582B000AFC3
:101F30007860FFF781FF00F09BFC00BF0837BD46CB
:101F400080BD000080B582B000AF0346FB80FB88F7
:101F5000B3F5806F12D110220A490B4804F035FD09
:101F60000A4B01221A700A4B1B7D002B06D0FFF78B
:101F700063FF00F07DFC064B00221A7500BF083796
:101F8000BD4680BD9C0200206C020020AC020020F7
:101F9000B002002080B400AF72B600BF00BFFDE702
:101FA00080B584B000AF0023FB603B1D00221A60A7
:101FB0005A601F4B1F4A1A601D4B4FF0FF325A6088
:101FC0001B4B4FF480729A60194802F0A7FD03463C
:101FD000002B01D0FFF7DEFF01233B7301237B734E
:101FE0000123BB730023FB7307F10C030122194685
:101FF0000F4802F0F7FE0346002B01D0FFF7CAFF9F
:1020000000233B7100237B710023BB710023BB6065
:102010003B1D01221946064802F09AFF0346002B99
:1020200001D0FFF7B7FF00BF1037BD4680BD00BF2E
:10203000C80200200028004080B584B000AF78605E
:102040007B681B680B4A934210D101F0ADFF0A4B2D
:10205000DB69094A43F00063D361074BDB6903F096
:102060000063FB60FB68054B01221A6000BF10375C
:10207000BD4680BD00280040001002403C044242A2
:1020800080B500AF174B184A1A60164B4FF4827296
:102090005A60144B00229A60124B0022DA60114BF6
:1020A00000221A610F4B00225A610E4B4FF400724E
:1020B0009A610C4B1022DA610A4B00221A62094B1A
:1020C00000225A62074B00229A62064B0A22DA6209
:1020D000044803F0C1FA0346002B01D0FFF75AFF72
:1020E00000BF80BDDC0200200030014080B588B018
:1020F00000AF786007F1100300221A605A609A60FE
:10210000DA607B681B681B4A93422FD11A4B9B698C
:10211000194A43F480539361174B9B6903F480532E
:10212000FB60FB68144B9B69134A43F00403936103
:10213000114B9B6903F00403BB60BB68A0233B61A8
:1021400002237B610323FB6107F1100319460B484F
:1021500000F022FD40233B6100237B610023BB6133
:1021600007F110031946054800F016FD00BF20379F
:10217000BD4680BD00300140001002400008014013
:1021800080B485B000AF154B9B69144A43F001033E
:102190009361124B9B6903F00103BB60BB680F4B5B
:1021A000DB690E4A43F08053D3610C4BDB6903F0CB
:1021B00080537B607B680A4B5B68FB60FB6823F0A5
:1021C000E063FB60FB6843F00073FB60044AFB685C
:1021D000536000BF1437BD4680BC704700100240FA
:1021E0000000014080B400AF00BFFDE780B400AF45
:1021F00000BFFDE780B400AF00BFFDE780B400AFD3
:1022000000BFFDE780B400AF00BFFDE780B400AFC2
:1022100000BFBD4680BC704780B400AF00BFBD4664
:1022200080BC704780B400AF00BFBD4680BC704723
:1022300080B500AF00F0CEFA00BF80BD80B500AF22
:10224000024803F093FE00BF80BD00BFDC02002007
:1022500080B500AF4FF4806000F052FE00BF80BD3B
:1022600080B500AF024802F02BFF00BF80BD00BF69
:10227000C802002080B400AF01231846BD4680BCD0
:10228000704780B582B000AF7860396005F0A8FB78
:10229000034616221A604FF0FF3318460837BD4632
:1022A00080BD80B582B000AF78604FF0FF317868B4
:1022B000FFF7E7FF00BFFDE780B586B000AFF8602D
:1022C000B9607A6000237B610AE0AFF300800146C9
:1022D000BB685A1CBA60CAB21A707B6901337B6151
:1022E0007A697B689A42F0DB7B6818461837BD46EE
:1022F00080BD80B586B000AFF860B9607A60002319
:102300007B6109E0BB685A1CBA601B781846AFF3C2
:1023100000807B6901337B617A697B689A42F1DBDB
:102320007B6818461837BD4680BD80B483B000AFC7
:1023300078604FF0FF3318460C37BD4680BC7047BD
:1023400080B483B000AF786039603B684FF40052CE
:102350005A60002318460C37BD4680BC704780B4D5
:1023600083B000AF7860012318460C37BD4680BCAF
:10237000704780B485B000AFF860B9607A60002320
:1023800018461437BD4680BC7047000080B586B043
:1023900000AF7860144A154BD31A7B617B693B61AF
:1023A000134B1B68002B02D1114B124A1A60104BC1
:1023B0001A687B6813443A699A4207D205F010FB09
:1023C00003460C221A604FF0FF3309E0084B1B68EC
:1023D000FB60074B1A687B681344054A1360FB686F
:1023E00018461837BD4680BD00500020000400008C
:1023F000340300209004002080B400AF00BFBD462D
:1024000080BC704780B582B000AF78607B68DBB27B
:102410001A460221034800F05AFD00BF0837BD46A6
:1024200080BD00BF0008014080B582B000AF786079
:102430007B68DBB21A460421034800F048FD00BF68
:102440000837BD4680BD00BF0008014080B500AF21
:102450000421034800F024FD0346184680BD00BF58
:102460000008014080B500AF0221034800F018FDCC
:102470000346184680BD00BF0008014080B582B009
:1024800000AF0346FB71FB791A464FF480610348A5
:1024900000F01DFD00BF0837BD4680BD00080140AB
:1024A00080B582B000AF78607B684FF0FF321A6071
:1024B00000F01EF802467B685A607B6814221A728C
:1024C0007B680022DA607B6800221A617B685B68A7
:1024D0001846FEF7B7FC0346DAB27B681B7A19464A
:1024E000104600F011F800BF0837BD4680BD00005F
:1024F00080B500AF0121034804F012FC014B1B68BA
:10250000184680BD3803002080B584B000AF034674
:102510000A46FB711346BB71FB791A02BB79134360
:1025200007F10800074A082105F070F907F10801D2
:102530004FF4FA630822044804F0E3F900BF1037AF
:10254000BD4680BD4C9B00086C02002090B583B056
:1025500000AF78607B681B68B3F1FF3F67D0002B4A
:1025600033D0012B6AD10020FFF74CFF7B685C68F9
:102570007B681B7A01331846FEF79AFB034619461F
:102580002046FEF755FC0346002B1AD0FFF75EFFEE
:102590000346002B02D10120FFF746FF7B685B68F2
:1025A0001846FFF73FFA7B685B681846FEF770FC39
:1025B0000346DAB27B681B7A19461046FFF7A4FF80
:1025C0003CE00020FFF730FF38E00020FFF72CFF51
:1025D0007B685C687B681B7A013B1846FEF768FBEA
:1025E000034619462046FEF705FC0346002B1AD089
:1025F000FFF738FF0346002B02D10120FFF702FF4F
:102600007B685B681846FFF70DFA7B685B681846C5
:10261000FEF73EFC0346DAB27B681B7A1946104689
:10262000FFF772FF0AE00020FFF7ECFE06E0002053
:10263000FFF7E8FE0020FFF7F7FE00BF00BF0C37F2
:10264000BD4690BD80B586B000AF786007F10C0341
:1026500000221A605A6007F1080300221946254833
:1026600002F0E8FA3B7A3B737B7A7B73BB7A3533B3
:10267000FB75FB7D3B2B13D9FB7D3C3BFB757B7ACC
:102680005A1C1D4B83FB021313445911D317C91A4B
:102690000B461B015B1A9B00D11ACBB27B7301E086
:1026A0007B7A7B73FB7DBB7300233B617B680122DC
:1026B0001A750020FFF7E2FE07F10C03002219460D
:1026C0000C4802F045FC00F0C5F80121012001F0A2
:1026D00077FC7B685B681846FEF7DAFB0346DAB2E4
:1026E0007B681B7A19461046FFF70EFF00BF1837AC
:1026F000BD4680BDC802002089888888FFF77CFE1F
:102700000B480C490C4A002302E0D458C45004334F
:10271000C4188C42F9D3094A094C002301E0136024
:102720000432A242FBD305F061F9FFF7D1FA7047FA
:1027300000000020D8010020609F0008D801002080
:102740008C040020FEE7000080B500AF084B1B683A
:10275000074A43F010031360032000F063F90F20D1
:1027600000F008F8FFF70CFD0023184680BD00BFFD
:102770000020024080B582B000AF7860124B1A682A
:10278000124B1B7819464FF47A73B3FBF1F3B2FB8B
:10279000F3F3184600F07BF90346002B01D0012328
:1027A0000EE07B680F2B0AD8002279684FF0FF30CB
:1027B00000F043F9064A7B681360002300E0012320
:1027C00018460837BD4680BD040000200C000020DC
:1027D0000800002080B400AF054B1B781A46054B5B
:1027E0001B681344034A136000BFBD4680BC70479A
:1027F0000C0000203C03002080B400AF024B1B689B
:102800001846BD4680BC70473C03002080B584B0AC
:1028100000AF7860FFF7F0FFB8607B68FB60FB6893
:10282000B3F1FF3F05D00A4B1B781A46FB681344EF
:10283000FB6000BFFFF7E0FF0246BB68D31AFA68EF
:102840009A42F7D800BF00BF1037BD4680BD00BF19
:102850000C00002080B400AF044B1B68034A23F037
:102860000203136000BFBD4680BC704710E000E06B
:1028700080B400AF044B1B68034A43F002031360AB
:1028800000BFBD4680BC704710E000E080B485B05A
:1028900000AF78607B6803F00703FB600C4BDB68DC
:1028A000BB60BA684FF6FF031340BB60FB681A02B7
:1028B000BB68134343F0BF6343F40033BB60044A77
:1028C000BB68D36000BF1437BD4680BC704700BFF3
:1028D00000ED00E080B400AF044BDB681B0A03F09E
:1028E00007031846BD4680BC704700BF00ED00E0FE
:1028F00080B483B000AF0346FB7197F90730002B1B
:102900000BDBFB7903F01F02064997F907305B09DF
:10291000012000FA02F241F8232000BF0C37BD4627
:1029200080BC704700E100E080B483B000AF034694
:102930003960FB7197F90730002B0ADB3B68DAB28C
:102940000C4997F907301201D2B20B4483F80023E7
:102950000AE03B68DAB20849FB7903F00F03043B55
:102960001201D2B20B441A7600BF0C37BD4680BCB0
:10297000704700BF00E100E000ED00E080B489B0E6
:1029800000AFF860B9607A60FB6803F00703FB6191
:10299000FB69C3F10703042B28BF0423BB61FB6958
:1029A0000433062B02D9FB69033B00E000237B6163
:1029B0004FF0FF32BB6902FA03F3DA43BB681A40F7
:1029C0007B699A404FF0FF317B6901FA03F3D943E9
:1029D0007B680B40134318462437BD4680BC7047C4
:1029E00080B582B000AF78607B68013BB3F1807F37
:1029F00001D301230FE00A4A7B68013B53600F219A
:102A00004FF0FF30FFF790FF054B00229A60044B18
:102A100007221A60002318460837BD4680BD00BF54
:102A200010E000E080B582B000AF78607868FFF712
:102A30002DFF00BF0837BD4680BD80B586B000AF12
:102A40000346B9607A60FB7300237B61FFF742FFA6
:102A500078617A68B9687869FFF790FF024697F95C
:102A60000F3011461846FFF75FFF00BF1837BD460D
:102A700080BD80B582B000AF0346FB7197F9073087
:102A80001846FFF735FF00BF0837BD4680BD80B54B
:102A900082B000AF78607868FFF7A2FF034618465F
:102AA0000837BD4680BD000080B584B000AF7860B7
:102AB0000023FB737B6893F82130DBB2022B05D037
:102AC0007B6804229A630123FB7351E07B681B68D7
:102AD0001A687B681B6822F00E021A607B681B680C
:102AE0001A687B681B6822F001021A607B681B6809
:102AF000224A934229D07B681B68214A934222D004
:102B00007B681B681F4A93421AD07B681B681E4A69
:102B1000934212D07B681B681C4A93420AD07B68A0
:102B20001B681B4A934202D14FF480130EE04FF012
:102B300080730BE04FF4803308E04FF4805305E0DE
:102B40004FF4807302E0102300E00123114A536028
:102B50007B68012283F821207B68002283F82020F3
:102B60007B685B6B002B03D07B685B6B7868984756
:102B7000FB7B18461037BD4680BD00BF08000240F1
:102B80001C00024030000240440002405800024055
:102B90006C0002400000024080B48BB000AF78604F
:102BA000396000237B6200233B6269E101227B6A7A
:102BB00002FA03F3FB613B681B68FA691340BB61CF
:102BC000BA69FB699A4240F058813B685B689A4A4F
:102BD00093425ED0984A934275D8984A934258D00F
:102BE000964A93426FD8964A934252D0944A93425F
:102BF00069D8944A93424CD0924A934263D8924AFD
:102C0000934246D0904A93425DD8122B2AD8122B79
:102C100059D801A252F823F0932C00086D2C00081B
:102C20007F2C0008C12C0008C72C0008C72C000806
:102C3000C72C0008C72C0008C72C0008C72C0008A8
:102C4000C72C0008C72C0008C72C0008C72C000898
:102C5000C72C0008C72C0008C72C0008752C0008DA
:102C6000892C0008794A934213D02CE03B68DB683A
:102C70003B6229E03B68DB6804333B6224E03B684D
:102C8000DB6808333B621FE03B68DB680C333B6268
:102C90001AE03B689B68002B02D104233B6213E0DF
:102CA0003B689B68012B05D108233B627B68FA696E
:102CB0001A6109E008233B627B68FA695A6103E004
:102CC00000233B6200E000BFBB69FF2B01D87B689B
:102CD00001E07B6804337B61BB69FF2B02D87B6A10
:102CE0009B0002E07B6A083B9B003B617B691A68A2
:102CF0000F213B6901FA03F3DB431A40396A3B6950
:102D000001FA03F31A437B691A603B685B6803F0BE
:102D10008053002B00F0B1804D4B9B694C4A43F02F
:102D2000010393614A4B9B6903F00103BB60BB68DD
:102D3000484A7B6A9B08023352F82330FB607B6A67
:102D400003F003039B000F2202FA03F3DB43FA684C
:102D50001340FB607B68404A934213D07B683F4A34
:102D600093420DD07B683E4A934207D07B683D4A30
:102D7000934201D1032306E0042304E0022302E08E
:102D8000012300E000237A6A02F0030292009340DC
:102D9000FA681343FB602F497B6A9B080233FA6889
:102DA00041F823203B685B6803F48013002B06D0B6
:102DB0002D4B9A682C49BB6913438B6006E02A4B64
:102DC0009A68BB69DB43284913408B603B685B68AA
:102DD00003F40013002B06D0234BDA682249BB69A9
:102DE0001343CB6006E0204BDA68BB69DB431E4926
:102DF0001340CB603B685B6803F40033002B06D0C4
:102E0000194B5A681849BB6913434B6006E0164BCF
:102E10005A68BB69DB43144913404B603B685B68ED
:102E200003F48033002B21D00F4B1A680E49BB6985
:102E300013430B6021E000BF00003210000031108E
:102E400000002210000021100000121000001110DC
:102E5000001002400000014000080140000C014049
:102E60000010014000140140000401400B4B1A689F
:102E7000BB69DB43094913400B607B6A01337B620A
:102E80003B681A687B6A22FA03F3002B7FF48EAE4C
:102E900000BF00BF2C37BD4680BC70470004014016
:102EA00080B485B000AF78600B467B807B689A6801
:102EB0007B881340002B02D00123FB7301E0002329
:102EC000FB73FB7B18461437BD4680BC704780B44B
:102ED00083B000AF78600B467B8013467B707B78B5
:102EE000002B03D07A887B681A6103E07B881A0480
:102EF0007B681A6100BF0C37BD4680BC704700007C
:102F000080B582B000AF0346FB80084B5A69FB884E
:102F10001340002B06D0054AFB885361FB881846F6
:102F2000FFF710F800BF0837BD4680BD0004014020
:102F300080B584B000AF78607B68002B01D101239D
:102F40002BE17B6893F83D30DBB2002B06D17B6828
:102F5000002283F83C207868FEF702FD7B6824227B
:102F600083F83D207B681B681A687B681B6822F029
:102F700001021A607B681B681A687B681B6842F450
:102F800000421A607B681B681A687B681B6822F421
:102F900000421A6001F010FCF8607B685B68814AAF
:102FA000934207D8FB68804A934294BF01230023D1
:102FB000DBB206E0FB687D4A934294BF0123002305
:102FC000DBB2002B01D00123E7E0FB68784AA2FBCB
:102FD00003239B0CBB607B681B685B6823F03F018D
:102FE0007B681B68BA680A435A607B681B681B6A67
:102FF00023F03F017B685B686A4A934202D8BB6852
:10300000013309E0BB684FF4967202FB03F3694A8F
:10301000A2FB03239B0901337A6812680B431362F6
:103020007B681B68DB6923F44F4222F0FF027B6858
:103030005B685C498B4219D8FB68591E7B685B68EA
:103040005B00B1FBF3F3591C40F6FC730B40002B03
:103050000AD0FB68591E7B685B685B00B1FBF3F329
:103060000133C3F30B0351E004234FE07B689B68FB
:10307000002B11D1FB68581E7B6859680B465B001A
:103080000B44B0FBF3F30133C3F30B03002B0CBF72
:1030900001230023DBB212E0FB68581E7B685968ED
:1030A0000B469B000B4499000B44B0FBF3F3013338
:1030B000C3F30B03002B0CBF01230023DBB2002B57
:1030C00001D0012322E07B689B68002B0ED1FB68B6
:1030D000581E7B6859680B465B000B44B0FBF3F34A
:1030E0000133C3F30B0343F400430FE0FB68581EA6
:1030F0007B6859680B469B000B4499000B44B0FB5E
:10310000F3F30133C3F30B0343F4404379680968D5
:103110001343CB617B681B681B6823F0C0017B688D
:10312000DA697B681B6A1A437B681B680A431A606A
:103130007B681B689B6823F4034323F0FF037A68D2
:1031400011697A68D26811437A6812680B439360F8
:103150007B681B68DB6823F0FF017B685A697B682A
:103160009B691A437B681B680A43DA607B681B68AB
:103170001A687B681B6842F001021A607B680022B3
:103180001A647B68202283F83D207B6800221A6342
:103190007B68002283F83E20002318461037BD4686
:1031A00080BD00BFA08601007F841E00FF083D0097
:1031B00083DE1B43D34D621080B588B002AFF86048
:1031C0007A601A460B467B8113463B81FFF714FB5E
:1031D0007861FB6893F83D30DBB2202B40F0E08053
:1031E0007B690093192301227049F86800F09EFC66
:1031F0000346002B01D00223D3E0FB6893F83C3058
:10320000012B01D10223CCE0FB68012283F83C2092
:10321000FB681B681B6803F00103012B07D0FB68E8
:103220001B681A68FB681B6842F001021A60FB68A1
:103230001B681A68FB681B6822F400621A60FB684E
:10324000212283F83D20FB68102283F83E20FB6892
:1032500000221A64FB687A685A62FB683A895A85C8
:10326000FB685B8D9AB2FB681A85FB68504ADA628C
:1032700079897B693A6AF86800F008FB0346002BFD
:1032800001D001238DE000233B61FB681B685B6973
:103290003B61FB681B689B693B613B6966E07A693F
:1032A000396AF86800F05CFD0346002B0DD0FB681E
:1032B0001B6C042B07D1FB681B681A68FB681B6832
:1032C00042F400721A6001236BE0FB685B6A1A78B3
:1032D000FB681B681A61FB685B6A5A1CFB685A62D0
:1032E000FB685B8D9BB2013B9AB2FB685A85FB6819
:1032F0001B8D013B9AB2FB681A85FB681B685B69F2
:1033000003F00403042B1BD1FB681B8D002B17D08B
:10331000FB685B6A1A78FB681B681A61FB685B6A6A
:103320005A1CFB685A62FB685B8D9BB2013B9AB2E8
:10333000FB685A85FB681B8D013B9AB2FB681A85B6
:103340007A69396AF86800F053FD0346002B0DD006
:10335000FB681B6C042B07D1FB681B681A68FB68B1
:103360001B6842F400721A6001231AE0FB681B8D8F
:10337000002B94D1FB681B681A68FB681B6842F439
:1033800000721A60FB68202283F83D20FB6800224F
:1033900083F83E20FB68002283F83C20002300E0F5
:1033A000022318461837BD4680BD00BF020010003A
:1033B0000000FFFF80B58CB002AFF8607A601A465B
:1033C0000B467B8113463B8100233B62FFF714FAD7
:1033D0007862FB6893F83D30DBB2202B40F04B82E3
:1033E0007B6A0093192301227F49F86800F09EFB55
:1033F0000346002B01D002233EE2FB6893F83C30E9
:10340000012B01D1022337E2FB68012283F83C2023
:10341000FB681B681B6803F00103012B07D0FB68E6
:103420001B681A68FB681B6842F001021A60FB689F
:103430001B681A68FB681B6822F400621A60FB684C
:10344000222283F83D20FB68102283F83E20FB688F
:1034500000221A64FB687A685A62FB683A895A85C6
:10346000FB685B8D9AB2FB681A85FB685F4ADA627B
:1034700079897B6A3A6BF86800F08AFA0346002B78
:1034800001D00123F8E1FB681B8D002B13D1002331
:10349000FB61FB681B685B69FB61FB681B689B69E0
:1034A000FB61FB69FB681B681A68FB681B6842F4D8
:1034B00000721A60CCE1FB681B8D012B1ED1FB68EA
:1034C0001B681A68FB681B6822F480621A6072B677
:1034D00000BF0023BB61FB681B685B69BB61FB68C5
:1034E0001B689B69BB61BB69FB681B681A68FB684A
:1034F0001B6842F400721A6062B635E0FB681B8DEF
:10350000022B1ED1FB681B681A68FB681B6842F41B
:1035100000621A6072B600BF00237B61FB681B6803
:103520005B697B61FB681B689B697B617B69FB68EE
:103530001B681A68FB681B6822F480621A6062B616
:1035400012E0FB681B681A68FB681B6842F4806223
:103550001A6000233B61FB681B685B693B61FB6889
:103560001B689B693B613B6972E1FB681B8D032B08
:1035700000F21F81FB681B8D012B23D17A6A396B06
:10358000F86800F07DFC0346002B01D0012373E1B5
:10359000FB681B681A69FB685B6AD2B21A70FB6829
:1035A0005B6A5A1CFB685A62FB681B8D013B9AB22E
:1035B000FB681A85FB685B8D9BB2013B9AB2FB6886
:1035C0005A8545E1FB681B8D022B52D17B6A009323
:1035D0003B6B00220649F86800F0A8FA0346002B6E
:1035E00008D0012348E100BF020010000000FFFFE7
:1035F0000400010072B600BFFB681B681A68FB6814
:103600001B6842F400721A60FB681B681A69FB6849
:103610005B6AD2B21A70FB685B6A5A1CFB685A621A
:10362000FB681B8D013B9AB2FB681A85FB685B8DBA
:103630009BB2013B9AB2FB685A8562B600BFFB6839
:103640001B681A69FB685B6AD2B21A70FB685B6A16
:103650005A1CFB685A62FB681B8D013B9AB2FB68DF
:103660001A85FB685B8D9BB2013B9AB2FB685A8559
:10367000EEE07B6A00933B6B00228149F86800F022
:1036800055FA0346002B01D00123F5E0FB681B68C7
:103690001A68FB681B6822F480621A6072B600BF69
:1036A000FB681B681A69FB685B6AD2B21A70FB6818
:1036B0005B6A5A1CFB685A62FB681B8D013B9AB21D
:1036C000FB681A85FB685B8D9BB2013B9AB2FB6875
:1036D0005A856C4B1B68DB086B4AA2FB03231A0A52
:1036E00013469B001344DA00D31A3B623B6A013B4A
:1036F0003B623B6A002B18D1FB6800221A63FB680F
:10370000202283F83D20FB68002283F83E20FB68DE
:103710001B6C43F02002FB681A6462B600BFFB68B2
:10372000002283F83C200123A6E0FB681B685B694C
:1037300003F00403042BD9D1FB681B681A68FB68EB
:103740001B6842F400721A60FB681B681A69FB6808
:103750005B6AD2B21A70FB685B6A5A1CFB685A62D9
:10376000FB681B8D013B9AB2FB681A85FB685B8D79
:103770009BB2013B9AB2FB685A8562B600BFFB68F8
:103780001B681A69FB685B6AD2B21A70FB685B6AD5
:103790005A1CFB685A62FB681B8D013B9AB2FB689E
:1037A0001A85FB685B8D9BB2013B9AB2FB685A8518
:1037B0004EE07A6A396BF86800F062FB0346002B32
:1037C00001D0012358E0FB681B681A69FB685B6A3B
:1037D000D2B21A70FB685B6A5A1CFB685A62FB68BB
:1037E0001B8D013B9AB2FB681A85FB685B8D9BB20F
:1037F000013B9AB2FB685A85FB681B685B6903F062
:103800000403042B24D1FB681B8D032B07D1FB6819
:103810001B681A68FB681B6822F480621A60FB68E8
:103820001B681A69FB685B6AD2B21A70FB685B6A34
:103830005A1CFB685A62FB681B8D013B9AB2FB68FD
:103840001A85FB685B8D9BB2013B9AB2FB685A8577
:10385000FB681B8D002B7FF488AEFB68202283F869
:103860003D20FB68002283F83E20FB68002283F89D
:103870003C20002300E0022318462837BD4680BDC7
:10388000040001000400002089B5F81480B588B058
:1038900002AFF8607A603B600B467B81FB68DB6AB5
:1038A0007B617B69082B06D07B69012B03D07B6988
:1038B00013F5803F08D1FB681B681A68FB681B681A
:1038C00042F480721A600BE0FB681B6B122B07D16D
:1038D000FB681B681A68FB681B6842F480721A60F8
:1038E0003B6800937B6800224FF00111F86800F0FC
:1038F0001DF90346002B0DD0FB681B681B6803F401
:103900008073B3F5807F03D1FB684FF400721A64B3
:10391000032335E0FB681B69B3F5804F08D17B8931
:10392000DBB21A46FB681B6802F0FE021A611BE05C
:103930007B89DB11DBB203F00603DBB263F00F031C
:10394000DAB2FB681B681A613B687A680E49F8684E
:1039500000F066F90346002B01D0012310E07B89BB
:10396000DAB2FB681B681A613B687A680749F86835
:1039700000F056F90346002B01D0012300E000239C
:1039800018461837BD4680BD08000100020001003E
:1039900080B588B002AFF8607A603B600B467B81EF
:1039A000FB68DB6A7B61FB681B681A68FB681B6845
:1039B00042F480621A607B69082B06D07B69012B78
:1039C00003D07B6913F5803F08D1FB681B681A6838
:1039D000FB681B6842F480721A600BE0FB681B6B8B
:1039E000112B07D1FB681B681A68FB681B6842F43F
:1039F00080721A603B6800937B6800224FF00111CF
:103A0000F86800F093F80346002B0DD0FB681B68A4
:103A10001B6803F48073B3F5807F03D1FB684FF418
:103A200000721A64032379E0FB681B69B3F5804FC9
:103A300008D17B89DBB243F00103DAB2FB681B6873
:103A40001A615FE07B89DB11DBB203F00603DBB2B6
:103A500063F00F03DAB2FB681B681A613B687A688F
:103A60003049F86800F0DCF80346002B01D0012350
:103A700054E07B89DAB2FB681B681A613B687A689C
:103A80002949F86800F0CCF80346002B01D0012347
:103A900044E000233B61FB681B685B693B61FB689A
:103AA0001B689B693B613B69FB681B681A68FB6884
:103AB0001B6842F480721A603B6800937B680022A6
:103AC0004FF00111F86800F031F80346002B0DD0DB
:103AD000FB681B681B6803F48073B3F5807F03D118
:103AE000FB684FF400721A64032317E07B89DB1133
:103AF000DBB203F00603DBB263F00E03DAB2FB685D
:103B00001B681A613B687A680749F86800F088F812
:103B10000346002B01D0012300E00023184618378C
:103B2000BD4680BD080001000200010080B584B0E0
:103B300000AFF860B9603B601346FB7148E03B683A
:103B4000B3F1FF3F44D0FEF757FE0246BB69D31ADC
:103B50003A689A4202D33B68002B39D1BB681B0CF0
:103B6000DBB2012B0DD1FB681B685B69DA43BB68D4
:103B700013409BB2002B0CBF01230023DBB21A467B
:103B80000CE0FB681B689B69DA43BB6813409BB27F
:103B9000002B0CBF01230023DBB21A46FB799A42AB
:103BA00016D1FB6800221A63FB68202283F83D20AF
:103BB000FB68002283F83E20FB681B6C43F0200268
:103BC000FB681A64FB68002283F83C20012323E091
:103BD000BB681B0CDBB2012B0DD1FB681B685B695A
:103BE000DA43BB6813409BB2002B0CBF01230023B8
:103BF000DBB21A460CE0FB681B689B69DA43BB68C2
:103C000013409BB2002B0CBF01230023DBB21A46EA
:103C1000FB799A4293D0002318461037BD4680BDE9
:103C200080B584B000AFF860B9607A603B6071E045
:103C3000FB681B685B6903F48063B3F5806F23D175
:103C4000FB681B681A68FB681B6842F400721A6004
:103C5000FB681B686FF480625A61FB6800221A637C
:103C6000FB68202283F83D20FB68002283F83E2079
:103C7000FB681B6C43F00402FB681A64FB680022BB
:103C800083F83C20012367E07B68B3F1FF3F41D01C
:103C9000FEF7B2FD02463B68D31A7A689A4202D315
:103CA0007B68002B36D1BB681B0CDBB2012B0CD11F
:103CB000FB681B685B69DA43BB6813409BB2002B4F
:103CC00014BF01230023DBB20BE0FB681B689B6978
:103CD000DA43BB6813409BB2002B14BF01230023BF
:103CE000DBB2002B16D0FB6800221A63FB6820228F
:103CF00083F83D20FB68002283F83E20FB681B6CA4
:103D000043F02002FB681A64FB68002283F83C2021
:103D1000012321E0BB681B0CDBB2012B0CD1FB683B
:103D20001B685B69DA43BB6813409BB2002B14BF6E
:103D300001230023DBB20BE0FB681B689B69DA43BD
:103D4000BB6813409BB2002B14BF01230023DBB2DE
:103D5000002B7FF46DAF002318461037BD4680BDA1
:103D600080B584B000AFF860B9607A6034E0F8687C
:103D700000F0E3F80346002B01D0012334E0BB68D8
:103D8000B3F1FF3F28D0FEF737FD02467B68D31A18
:103D9000BA689A4202D3BB68002B1DD1FB681B682E
:103DA0005B6903F08003802B16D0FB6800221A6346
:103DB000FB68202283F83D20FB68002283F83E2028
:103DC000FB681B6C43F02002FB681A64FB6800224E
:103DD00083F83C20012307E0FB681B685B6903F064
:103DE0008003802BC3D1002318461037BD4680BD09
:103DF00080B584B000AFF860B9607A6034E0F868EC
:103E000000F09BF80346002B01D0012334E0BB688F
:103E1000B3F1FF3F28D0FEF7EFFC02467B68D31AD0
:103E2000BA689A4202D3BB68002B1DD1FB681B689D
:103E30005B6903F00403042B16D0FB6800221A63AD
:103E4000FB68202283F83D20FB68002283F83E2097
:103E5000FB681B6C43F02002FB681A64FB680022BD
:103E600083F83C20012307E0FB681B685B6903F0D3
:103E70000403042BC3D1002318461037BD4680BD70
:103E800080B584B000AFF860B9607A6049E0FB6843
:103E90001B685B6903F01003102B19D1FB681B68CA
:103EA0006FF010025A61FB6800221A63FB6820223F
:103EB00083F83D20FB68002283F83E20FB681A6CE3
:103EC000FB681A64FB68002283F83C20012330E081
:103ED000FEF792FC02467B68D31ABA689A4202D374
:103EE000BB68002B1DD1FB681B685B6903F04003B6
:103EF000402B16D0FB6800221A63FB68202283F84F
:103F00003D20FB68002283F83E20FB681B6C43F0D9
:103F10002002FB681A64FB68002283F83C2001231E
:103F200007E0FB681B685B6903F04003402BAED1E0
:103F3000002318461037BD4680BD80B483B000AF63
:103F400078607B681B685B6903F48063B3F5806FFE
:103F50001BD17B681B686FF480625A617B6800220A
:103F60001A637B68202283F83D207B68002283F857
:103F70003E207B681B6C43F004027B681A647B68FC
:103F8000002283F83C20012300E0002318460C3770
:103F9000BD4680BC704780B400AF20BF00BF00BFEB
:103FA000BD4680BC7047000080B400AF034B0122C7
:103FB0001A6000BFBD4680BC704700BF20000E42A3
:103FC00080B582B000AF78600B46FB70134B1B6866
:103FD000124A23F002031360104B1B6823F0010206
:103FE0000E497B6813430B600D4B1B690C4A43F071
:103FF00004031361FB78012B01D130BF04E040BF03
:10400000FFF7C9FFFFF7C7FF054B1B69044A23F001
:104010000403136100BF0837BD4680BD0070004037
:1040200000ED00E080B586B000AF78607B68002BC3
:1040300001D1012372E27B681B6803F00103002BAE
:1040400000F08780924B5B6803F00C03042B0CD0CC
:104050008F4B5B6803F00C03082B12D18C4B5B6811
:1040600003F48033B3F5803F0BD1894B1B6803F415
:104070000033002B6CD07B685B68002B68D1012378
:104080004CE27B685B68B3F5803F06D1804B1B68D0
:104090007F4A43F4803313602EE07B685B68002B1B
:1040A0000CD17B4B1B687A4A23F480331360784B26
:1040B0001B68774A23F4802313601DE07B685B68EC
:1040C000B3F5A02F0CD1724B1B68714A43F48023C7
:1040D00013606F4B1B686E4A43F4803313600BE030
:1040E0006B4B1B686A4A23F480331360684B1B6870
:1040F000674A23F4802313607B685B68002B13D02E
:10410000FEF77AFB386108E0FEF776FB02463B6972
:10411000D31A642B01D9032300E25D4B1B6803F41F
:104120000033002BF0D014E0FEF766FB386108E0A6
:10413000FEF762FB02463B69D31A642B01D90323C5
:10414000ECE1534B1B6803F40033002BF0D100E08B
:1041500000BF7B681B6803F00203002B63D04C4B4D
:104160005B6803F00C03002B0BD0494B5B6803F03A
:104170000C03082B1CD1464B5B6803F48033002BE7
:1041800016D1434B1B6803F00203002B05D07B685C
:104190001B69012B01D00123C0E13D4B1B6823F0BB
:1041A000F8027B685B69DB00394913430B603AE036
:1041B0007B681B69002B20D0364B01221A60FEF76A
:1041C0001BFB386108E0FEF717FB02463B69D31A78
:1041D000022B01D90323A1E12D4B1B6803F002033D
:1041E000002BF0D02A4B1B6823F0F8027B685B6938
:1041F000DB00274913430B6015E0264B00221A60B1
:10420000FEF7FAFA386108E0FEF7F6FA02463B6973
:10421000D31A022B01D9032380E11D4B1B6803F045
:104220000203002BF0D17B681B6803F00803002B0E
:104230003AD07B689B69002B19D0174B01221A607A
:10424000FEF7DAFA386108E0FEF7D6FA02463B6973
:10425000D31A022B01D9032360E10D4B5B6A03F0F3
:104260000203002BF0D0012000F0CEFA1CE00A4B34
:1042700000221A60FEF7C0FA38610FE0FEF7BCFAC0
:1042800002463B69D31A022B08D9032346E100BF3B
:10429000001002400000424280044242924B5B6A9E
:1042A00003F00203002BE9D17B681B6803F00403D1
:1042B000002B00F0A6800023FB758B4BDB6903F01D
:1042C0008053002B0DD1884BDB69874A43F0805324
:1042D000D361854BDB6903F08053BB60BB6801236E
:1042E000FB75824B1B6803F48073002B18D17F4B46
:1042F0001B687E4A43F480731360FEF77DFA3861D1
:1043000008E0FEF779FA02463B69D31A642B01D91B
:10431000032303E1754B1B6803F48073002BF0D07B
:104320007B68DB68012B06D16F4B1B6A6E4A43F03A
:10433000010313622DE07B68DB68002B0CD16A4B14
:104340001B6A694A23F001031362674B1B6A664AC2
:1043500023F0040313621CE07B68DB68052B0CD19F
:10436000614B1B6A604A43F0040313625E4B1B6A95
:104370005D4A43F0010313620BE05B4B1B6A5A4A30
:1043800023F001031362584B1B6A574A23F00403BE
:1043900013627B68DB68002B15D0FEF72DFA3861BD
:1043A0000AE0FEF729FA02463B69D31A41F2883245
:1043B000934201D90323B1E04B4B1B6A03F0020384
:1043C000002BEED014E0FEF717FA38610AE0FEF792
:1043D00013FA02463B69D31A41F28832934201D95B
:1043E00003239BE0404B1B6A03F00203002BEED13A
:1043F000FB7D012B05D13C4BDB693B4A23F080530D
:10440000D3617B68DB69002B00F08780364B5B68EB
:1044100003F00C03082B61D07B68DB69022B46D1CB
:10442000334B00221A60FEF7E7F9386108E0FEF727
:10443000E3F902463B69D31A022B01D903236DE04D
:10444000294B1B6803F00073002BF0D17B681B6ABB
:10445000B3F5803F08D1244B5B6823F400327B68BE
:104460009B68214913434B601F4B5B6823F4741214
:104470007B68196A7B685B6A0B431B4913434B607B
:104480001B4B01221A60FEF7B7F9386108E0FEF70E
:10449000B3F902463B69D31A022B01D903233DE04D
:1044A000114B1B6803F00073002BF0D035E0104B6C
:1044B00000221A60FEF7A0F9386108E0FEF79CF9C7
:1044C00002463B69D31A022B01D9032326E0064B8F
:1044D0001B6803F00073002BF0D11EE07B68DB69E2
:1044E000012B07D1012319E00010024000700040A9
:1044F000600042420B4B5B68FB60FB6803F4803258
:104500007B681B6A9A4206D1FB6803F470127B68D1
:104510005B6A9A4201D0012300E000231846183755
:10452000BD4680BD0010024080B584B000AF786009
:1045300039607B68002B01D10123D0E06A4B1B68F6
:1045400003F007033A689A4210D9674B1B6823F0BF
:10455000070265493B6813430B60634B1B6803F01C
:1045600007033A689A4201D00123B8E07B681B68D0
:1045700003F00203002B20D07B681B6803F00403C8
:10458000002B05D0594B5B68584A43F4E0635360F5
:104590007B681B6803F00803002B05D0534B5B6856
:1045A000524A43F460535360504B5B6823F0F0026F
:1045B0007B689B684D4913434B607B681B6803F025
:1045C0000103002B40D07B685B68012B07D1474B70
:1045D0001B6803F40033002B15D101237FE07B68B7
:1045E0005B68022B07D1414B1B6803F00073002B63
:1045F00009D1012373E03D4B1B6803F00203002B3C
:1046000001D101236BE0394B5B6823F003027B6827
:104610005B68364913434B60FEF7EEF8F8600AE03A
:10462000FEF7EAF80246FB68D31A41F28832934259
:1046300001D9032353E02D4B5B6803F00C027B6828
:104640005B689B009A42EBD1274B1B6803F0070382
:104650003A689A4210D2244B1B6823F00702224981
:104660003B6813430B60204B1B6803F007033A6859
:104670009A4201D0012332E07B681B6803F00403F7
:10468000002B08D0194B5B6823F4E0627B68DB6881
:10469000164913434B607B681B6803F00803002B2B
:1046A00009D0124B5B6823F460527B681B69DB0006
:1046B0000E4913434B6000F021F802460B4B5B6838
:1046C0001B0903F00F030A49CB5C22FA03F3094AE2
:1046D0001360094B1B681846FEF74CF80023184678
:1046E0001037BD4680BD00BF0020024000100240D0
:1046F000A09B0008040000200800002080B487B0C0
:1047000000AF0023FB600023BB6000237B6100231C
:104710007B6000233B611E4B5B68FB60FB6803F022
:104720000C03042B02D0082B03D027E0194B3B616C
:1047300027E0FB689B0C03F00F03174AD35C7B60F8
:10474000FB6803F48033002B10D0114B5B685B0CCB
:1047500003F00103114AD35CBB607B680D4A03FB85
:1047600002F2BB68B2FBF3F37B6104E07B680C4AA6
:1047700002FB03F37B617B693B6102E0054B3B611C
:1047800000BF3B6918461C37BD4680BC704700BF60
:104790000010024000127A00B89B0008C89B000875
:1047A00000093D0080B400AF024B1B681846BD46AF
:1047B00080BC70470400002080B500AFFFF7F2FF17
:1047C0000246054B5B681B0A03F007030349CB5CF9
:1047D00022FA03F3184680BD00100240B09B000887
:1047E00080B500AFFFF7DEFF0246054B5B68DB0AD2
:1047F00003F007030349CB5C22FA03F3184680BD9C
:1048000000100240B09B000880B485B000AF786013
:104810000A4B1B680A4AA2FB03235B0A7A6802FB65
:1048200003F3FB6000BFFB685A1EFA60002BF9D14E
:1048300000BF00BF1437BD4680BC70470400002095
:10484000D34D621080B586B000AF786000233B6125
:104850000023FB607B681B6803F00103002B7DD005
:104860000023FB754F4BDB6903F08053002B0DD108
:104870004C4BDB694B4A43F08053D361494BDB69B6
:1048800003F08053BB60BB680123FB75464B1B687C
:1048900003F48073002B18D1434B1B68424A43F446
:1048A00080731360FDF7A8FF386108E0FDF7A4FFEF
:1048B00002463B69D31A642B01D903236DE03A4BBE
:1048C0001B6803F48073002BF0D0364B1B6A03F493
:1048D0004073FB60FB68002B2ED07B685B6803F4A1
:1048E0004073FA689A4227D02E4B1B6A23F4407318
:1048F000FB602E4B01221A602C4B00221A60294AC1
:10490000FB681362FB6803F00103002B14D0FDF772
:1049100073FF38610AE0FDF76FFF02463B69D31A67
:1049200041F28832934201D9032336E01D4B1B6AC2
:1049300003F00203002BEED01A4B1B6A23F44072E3
:104940007B685B68174913430B62FB7D012B05D124
:10495000144BDB69134A23F08053D3617B681B68D7
:1049600003F00203002B08D00E4B5B6823F4404297
:104970007B689B680B4913434B607B681B6803F0A3
:104980001003002B08D0074B5B6823F480027B6880
:10499000DB68044913434B60002318461837BD46B3
:1049A00080BD00BF00100240007000404004424241
:1049B00080B588B000AF786000237B610023FB6185
:1049C00000233B610023FB600023BB617B68102B4D
:1049D0000AD07B68102B00F28A807B68012B45D0BF
:1049E0007B68022B75D082E0464B5B68FB60454BD1
:1049F0001B6803F08073002B7BD0FB689B0C03F0DB
:104A00000F03414AD35C3B61FB6803F48033002B06
:104A100015D03C4B5B685B0C03F001033B4AD35C55
:104A20007B61FB6803F48033002B0DD0384A7B692F
:104A3000B2FBF3F23B6902FB03F3FB6104E03B6969
:104A4000344A02FB03F3FB612E4B5B6803F48003E3
:104A5000B3F5800F02D1FB69BB614AE0FB695B00E3
:104A60002D4AA2FB03235B08BB6142E0254B1B6A76
:104A7000FB60FB6803F44073B3F5807F08D1FB68EB
:104A800003F00203002B03D04FF40043BB611FE08F
:104A9000FB6803F44073B3F5007F09D1194B5B6ADF
:104AA00003F00203002B03D049F64043BB610FE043
:104AB000FB6803F44073B3F5407F1CD1114B1B68B6
:104AC00003F40033002B16D04FF22443BB6112E0F5
:104AD00011E0FFF785FE02460A4B5B689B0B03F073
:104AE000030301335B00B2FBF3F3BB6104E000BFDF
:104AF00002E000BF00E000BFBB6918462037BD469A
:104B000080BD00BF00100240CC9B0008DC9B000869
:104B100000127A0000093D00ABAAAAAA80B584B0B1
:104B200000AF78600023FB607B68002B01D101237C
:104B30007AE07B685B7CDBB2002B05D17B680022CE
:104B40001A747868FDF778FA7B6802225A747868DC
:104B500000F0E0FA0346002B04D07B6804225A746C
:104B6000012361E0786800F099FB0346002B04D034
:104B70007B6804225A74012356E07B681B685A68DC
:104B80007B681B6822F007025A607B689B68002BD9
:104B900005D0274B1B6B264A23F001031363244BDC
:104BA000DB6A23F460727B689B6821491343CB6204
:104BB0007B685B68B3F1FF3F03D07B685B68FB6099
:104BC0000EE00120FFF7F4FEF860FB68002B04D133
:104BD0007B6804225A74012326E0FB68013BFB60DA
:104BE000FB681A0C7B681B6802F00F029A607B68F6
:104BF0001B68FA6892B2DA60786800F077FB0346C7
:104C0000002B04D07B6804225A7401230CE07B68DB
:104C10000022DA737B6801225A737B6801229A733F
:104C20007B6801225A74002318461037BD4680BDA8
:104C3000006C004080B588B000AFF860B9607A6061
:104C40000023BB610023FB6100237B6100233B61E8
:104C5000FB68002B02D0BB68002B01D10123B5E01B
:104C6000FB681B685B6803F00403002B01D0012381
:104C7000ACE0F86800F07BFAB861BB69554AA2FB6A
:104C80000323DB0A3B61BA69524BA3FB0213DB0A25
:104C90004FF4616101FB03F3D31A4F4AA2FB0323D4
:104CA0005B09DAB2BB685A70BB694A4AA2FB0312BD
:104CB000D20A4FF4616101FB02F29A1A464BA3FB40
:104CC000021359090B461B015B1A9B00D11ACAB289
:104CD000BB689A703B69172B55D93B693F4AA2FBC9
:104CE00003231B097B6139693C4BA3FB01231A0990
:104CF00013465B001344DB00CA1AD2B2BB681A70B9
:104D0000F86800F08BFAF861FB69B3F1FF3F08D057
:104D1000FA69BB699A4204D9FA69BB69D31AFB6183
:104D200002E04FF0FF33FB617B692D4A02FB03F386
:104D3000BA69D31ABB61B969F86800F048FA03464A
:104D4000002B01D0012341E0FB69B3F1FF3F0CD000
:104D5000FA69BB691344FB61F969F86800F077FAF6
:104D60000346002B0AD0012330E0F969F86800F00F
:104D70006EFA0346002B01D0012327E07969F86819
:104D800000F016FB03E03B69DAB2BB681A707B687F
:104D9000002B1AD0BB681B78184600F0CFFA0346E8
:104DA0001A46BB681A70BB685B78184600F0C6FAF2
:104DB00003461A46BB685A70BB689B78184600F0D9
:104DC000BDFA03461A46BB689A700023184620377E
:104DD000BD4680BDC5B3A29189888888ABAAAAAA1E
:104DE0008051010080B588B000AFF860B9607A608A
:104DF0000023FB610023BB6100237B61FB68002B68
:104E000002D0BB68002B01D1012397E0FB681B7C1B
:104E1000012B01D1022391E0FB6801221A74FB6887
:104E200002225A747B68002B0CD1BB68DA78FB68CD
:104E3000DA73BB685A78FB685A73BB689A78FB6868
:104E40009A731AE0BB68DB78184600F094FA0346C0
:104E50001A46FB68DA73BB685B78184600F08BFA79
:104E600003461A46FB685A73BB689B78184600F0E5
:104E700082FA03461A46FB689A73FB68DB7B184686
:104E8000FB68597BFB689B7B1A4600F06DFB034671
:104E90001A46FB681A73FB681A7BBB681A70F868BD
:104EA00000F065F9F861FB69264AA2FB0323DB0ADF
:104EB0007B617B69182B3AD97B69234AA2FB0323C8
:104EC0001B09224A02FB03F3FA69D31AFB61F96951
:104ED000F86800F07CF90346002B07D0FB68042239
:104EE0005A74FB6800221A74012327E0F86800F066
:104EF00095F9B861BB69B3F1FF3F18D0BA69FB6996
:104F00009A4214D2BB6903F5A83303F5C073BB61A1
:104F1000B969F86800F09BF90346002B07D0FB68DD
:104F200004225A74FB6800221A74012306E0FB680D
:104F300001225A74FB6800221A7400231846203795
:104F4000BD4680BDC5B3A291ABAAAAAA80510100FB
:104F500090B589B000AFF860B9607A600023FB615A
:104F600007F1140300210A461A800A469A70FB686A
:104F7000002B02D0BB68002B01D1012399E0FB6814
:104F80001B7C012B01D1022393E0FB6801221A74E0
:104F9000FB6802225A7407F1140300221946F868CC
:104FA000FFF748FE0346002B01D0012381E03B7D43
:104FB0001A464FF4616303FB02F27B7D19460B46F0
:104FC0001B015B1A9B001344BA7D1344BB617B68D1
:104FD000002B13D1BB681B781A464FF4616303FBA7
:104FE00002F2BB685B7819460B461B015B1A9B00FB
:104FF0001344BA6892781344FB611EE0BB681B78C7
:10500000184600F0B8F903461A464FF4616303FBF3
:1050100002F4BB685B78184600F0ADF903461A4607
:1050200013461B019B1A9B001C44BB689B781846C7
:1050300000F0A1F903462344FB61FA69BB699A4277
:1050400005D2FB6903F5A83303F5C073FB61F96969
:10505000F86800F0FCF80346002B07D0FB68042238
:105060005A74FB6800221A74012322E0FB681B6853
:105070005A68FB681B6822F002025A60FB681B68D2
:105080001A68FB681B6842F002021A600B4B1B682F
:105090000A4A43F400331360084B9B68074A43F401
:1050A00000339360FB6801225A74FB6800221A7473
:1050B000002318462437BD4690BD00BF00040140C0
:1050C00080B582B000AF78607B681B681B6803F016
:1050D0000203002B11D07B681B685B6803F002039E
:1050E000002B0AD07868FCF720FF7B681B685A68A1
:1050F0007B681B6822F002025A60054B4FF40032B5
:105100005A617B6801225A7400BF0837BD4680BDD2
:105110000004014080B584B000AF78600023FB60DC
:105120007B68002B01D101231DE07B681B685A6856
:105130007B681B6822F008025A60FDF75DFBF8608F
:1051400009E0FDF759FB0246FB68D31AB3F57A7FF5
:1051500001D9032307E07B681B685B6803F0080341
:10516000002BEED0002318461037BD4680BD80B41A
:1051700087B000AF786000237B8200233B8200234E
:10518000FB8100237B617B681B689B697B827B685A
:105190001B68DB69FB817B681B689B693B827A8AA1
:1051A0003B8A9A4208D03B8A1A047B681B68DB69F9
:1051B0009BB213437B6104E07B8A1A04FB8913438F
:1051C0007B617B6918461C37BD4680BC704780B543
:1051D00084B000AF786039600023FB73786800F01A
:1051E0005DF80346002B02D00123FB7311E07B68BE
:1051F0001B683A68120C9A617B681B683A6892B225
:10520000DA61786800F072F80346002B01D00123C0
:10521000FB73FB7B18461037BD4680BD80B485B05C
:1052200000AF78600023FB810023BB817B681B6893
:105230001B6AFB817B681B685B6ABB81FB891A0464
:10524000BB89134318461437BD4680BC704780B5F0
:1052500084B000AF786039600023FB73786800F099
:105260001DF80346002B02D00123FB7311E07B687D
:105270001B683A68120C1A627B681B683A6892B223
:105280005A62786800F032F80346002B01D00123FF
:10529000FB73FB7B18461037BD4680BD80B584B0DC
:1052A00000AF78600023FB60FDF7A6FAF86009E024
:1052B000FDF7A2FA0246FB68D31AB3F57A7F01D94B
:1052C00003230FE07B681B685B6803F02003002B5F
:1052D000EED07B681B685A687B681B6842F010023E
:1052E0005A60002318461037BD4680BD80B584B093
:1052F00000AF78600023FB607B681B685A687B689E
:105300001B6822F010025A60FDF776FAF86009E097
:10531000FDF772FA0246FB68D31AB3F57A7F01D91A
:10532000032307E07B681B685B6803F02003002B06
:10533000EED0002318461037BD4680BD80B485B03E
:1053400000AF0346FB710023FB6005E0FB680133FF
:10535000FB60FB790A3BFB71FB79092BF6D8FB68F4
:10536000DBB21B01DAB2FB791343DBB21846143708
:10537000BD4680BC704780B485B000AF0346FB716A
:105380000023FB60FB791B09DBB21A4613469B0026
:1053900013445B00FB60FB7903F00F03DAB2FB6898
:1053A000DBB21344DBB218461437BD4680BC7047ED
:1053B00080B586B000AF7860396000237B61002340
:1053C0003B610023FB600023BB607B68DB7B7B6170
:1053D0007B685B7B3B617B689B7BFB600023BB60E6
:1053E0006FE03B69012B11D03B69032B0ED03B6969
:1053F000052B0BD03B69072B08D03B69082B05D048
:105400003B690A2B02D03B690C2B17D1FB681E2B82
:1054100003D8FB680133FB6050E03B690C2B05D0DF
:105420003B6901333B610123FB6047E001233B61A2
:105430000123FB607B6901337B613FE03B69042B07
:1054400008D03B69062B05D03B69092B02D03B698C
:105450000B2B0CD1FB681D2B03D8FB680133FB60C1
:105460002CE03B6901333B610123FB6026E03B6993
:10547000022B23D1FB681B2B03D8FB680133FB6095
:105480001CE0FB681C2B11D17B699BB2184600F015
:1054900039F80346002B03D0FB680133FB600DE0B5
:1054A0003B6901333B610123FB6007E0FB681D2B77
:1054B00004D13B6901333B610123FB60BB680133CD
:1054C000BB60BA683B689A428BD37B69DAB27B686F
:1054D000DA733B69DAB27B685A73FB68DAB27B68CD
:1054E0009A733B69DBB2FA68D2B21946786900F068
:1054F0003BF803461A467B681A7300BF1837BD464F
:1055000080BD000080B483B000AF0346FB80FB8801
:1055100003F003039BB2002B01D000231DE0FB88A6
:10552000104AA2FB03125209642101FB02F29B1AEA
:105530009BB2002B01D001230FE0FB88094AA2FB9C
:105540000312D2094FF4C87101FB02F29B1A9BB2FD
:10555000002B01D1012300E0002318460C37BD4683
:1055600080BC70471F85EB5180B485B000AF786078
:105570000B46FB701346BB700023BB600023FB602F
:105580007B6803F5FA63BB60FB78022B2DD8FA78B1
:1055900013465B001344DB009B1A2C4AA2FB032337
:1055A0005A08BB781A44BB681A44BB68013B9B0885
:1055B0001A44BB68013B2649A1FB03135B09D21ABD
:1055C000BB68013B2249A1FB0313DB0913441A1DED
:1055D000204BA3FB0213D11A49080B4499080B4630
:1055E000DB005B1AD31AFB6029E0FA7813465B00F4
:1055F0001344DB009B1A154AA2FB03235A08BB780D
:105600001A44BB681A44BB689B081A44BB6810491B
:10561000A1FB03135B09D21ABB680D49A1FB03135D
:10562000DB0913449A1C0B4BA3FB0213D11A490844
:105630000B4499080B46DB005B1AD31AFB60FB682E
:10564000DBB218461437BD4680BC7047398EE3384C
:105650001F85EB512549922480B582B000AF786058
:105660007B68002B01D1012376E07B685B6A002B0D
:1056700008D17B685B68B3F5827F09D07B68002224
:10568000DA6105E07B6800221A617B6800225A61BA
:105690007B6800229A627B6893F85130DBB2002B62
:1056A00006D17B68002283F850207868FCF71EFD45
:1056B0007B68022283F851207B681B681A687B682C
:1056C0001B6822F040021A607B685B6803F48272F8
:1056D0007B689B6803F404431A437B68DB6803F42C
:1056E00000631A437B681B6903F002031A437B685B
:1056F0005B6903F001031A437B689B6903F4007341
:105700001A437B68DB6903F038031A437B681B6A22
:1057100003F0800342EA03017B689B6A03F40052B2
:105720007B681B680A431A607B689B691A0C7B685C
:105730001B6802F004025A607B681B68DA697B68A8
:105740001B6822F40062DA617B6800225A657B687C
:10575000012283F85120002318460837BD4680BD3A
:1057600080B588B000AFF860B9603B601346FB803D
:10577000FDF742F8F861FB887B83FB6893F85130B2
:10578000DBB2012B01D002232AE1BB68002B02D03F
:10579000FB88002B01D1012322E1FB6893F85030F4
:1057A000012B01D102231BE1FB68012283F8502069
:1057B000FB68032283F85120FB6800225A65FB68CE
:1057C000BA681A63FB68FA889A86FB68FA88DA86F0
:1057D000FB6800229A63FB6800229A87FB6800221C
:1057E000DA87FB6800225A64FB6800221A64FB68AF
:1057F0009B68B3F5004F0FD1FB681B681A68FB6804
:105800001B6822F040021A60FB681B681A68FB687C
:105810001B6842F480421A60FB681B681B6803F037
:105820004003402B07D0FB681B681A68FB681B68A5
:1058300042F040021A60FB68DB68B3F5006F52D19A
:10584000FB685B68002B02D07B8B012B45D1FB688A
:105850001B6B1A88FB681B68DA60FB681B6B9A1C61
:10586000FB681A63FB68DB8E9BB2013B9AB2FB6854
:10587000DA8632E0FB681B689B6803F00203022BA8
:1058800012D1FB681B6B1A88FB681B68DA60FB6827
:105890001B6B9A1CFB681A63FB68DB8E9BB2013B97
:1058A0009AB2FB68DA8618E0FCF7A6FF0246FB69AD
:1058B000D31A3A689A4203D83B68B3F1FF3F02D14A
:1058C0003B68002B09D1FB68012283F85120FB685B
:1058D000002283F85020032382E0FB68DB8E9BB21A
:1058E000002BC7D153E0FB685B68002B02D07B8B99
:1058F000012B47D1FB681A6BFB681B680C331278CD
:105900001A70FB681B6B5A1CFB681A63FB68DB8E02
:105910009BB2013B9AB2FB68DA8633E0FB681B68F6
:105920009B6803F00203022B13D1FB681A6BFB6820
:105930001B680C3312781A70FB681B6B5A1CFB68CF
:105940001A63FB68DB8E9BB2013B9AB2FB68DA8676
:1059500018E0FCF751FF0246FB69D31A3A689A42F5
:1059600003D83B68B3F1FF3F02D13B68002B09D15C
:10597000FB68012283F85120FB68002283F8502045
:1059800003232DE0FB68DB8E9BB2002BC6D1FA69A6
:105990003968F86800F0CCFC0346002B02D0FB68A5
:1059A00020225A65FB689B68002B0AD100237B618B
:1059B000FB681B68DB687B61FB681B689B687B611D
:1059C0007B69FB68012283F85120FB68002283F881
:1059D0005020FB685B6D002B01D0012300E0002309
:1059E00018462037BD4680BD80B588B002AFF8604C
:1059F000B9603B601346FB80FB6893F85130DBB223
:105A0000012B01D0022304E1FB685B68B3F5827FC0
:105A100012D1FB689B68002B0ED1FB68042283F82F
:105A20005120FA883B6800931346BA68B968F86851
:105A300000F0F3F80346ECE0FCF7DEFE7861BB68AB
:105A4000002B02D0FB88002B01D10123E1E0FB6891
:105A500093F85030012B01D10223DAE0FB680122D8
:105A600083F85020FB68042283F85120FB68002251
:105A70005A65FB68BA689A63FB68FA889A87FB687C
:105A8000FA88DA87FB6800221A63FB6800229A868C
:105A9000FB680022DA86FB6800221A64FB68002299
:105AA0005A64FB689B68B3F5004F0FD1FB681B6815
:105AB0001A68FB681B6822F040021A60FB681B68CA
:105AC0001A68FB681B6822F480421A60FB681B6836
:105AD0001B6803F04003402B07D0FB681B681A6863
