:020000040800F2
:1000000000500020191C0008251B00082D1B0008AB
:10001000351B00083D1B0008451B000800000000C0
:100020000000000000000000000000004D1B000860
:10003000591B000800000000651B0008711B000828
:10004000611C0008611C0008611C0008611C00089C
:10005000611C0008611C0008611C0008611C00088C
:10006000611C0008611C0008611C0008611C00087C
:10007000611C0008611C0008611C0008611C00086C
:10008000611C0008611C0008611C0008611C00085C
:10009000611C0008611C0008611C0008611C00084C
:1000A000611C0008611C0008611C0008611C00083C
:1000B000611C0008611C0008611C0008611C00082C
:1000C000611C0008611C0008611C00087D1B000801
:1000D000611C0008611C0008611C0008611C00080C
:1000E000911B0008611C0008611C00080000000052
:1000F0000000000000000000000000000000000000
:0C01000000000000000000005FF808F1A3
:10010C0010B5054C237833B9044B13B10448AFF345
:10011C0000800123237010BD64000020000000004B
:10012C00D04B000808B5034B1BB103490348AFF390
:10013C00008008BD0000000068000020D04B0008C3
:10014C00034613F8012B002AFBD1181A013870470B
:10015C0081F0004102E000BF83F0004330B54FEA6C
:10016C0041044FEA430594EA050F08BF90EA020FD9
:10017C001FBF54EA000C55EA020C7FEA645C7FEA6C
:10018C00655C00F0E2804FEA5454D4EB5555B8BF8F
:10019C006D420CDD2C4480EA020281EA030382EA00
:1001AC00000083EA010180EA020281EA0303362D92
:1001BC0088BF30BD11F0004F4FEA01314FF4801C65
:1001CC004CEA113102D0404261EB410113F0004F77
:1001DC004FEA03334CEA133302D0524263EB43032E
:1001EC0094EA050F00F0A780A4F10104D5F1200ECC
:1001FC000DDB02FA0EFC22FA05F2801841F1000127
:10020C0003FA0EF2801843FA05F359410EE0A5F1FA
:10021C0020050EF1200E012A03FA0EFC28BF4CF02B
:10022C00020C43FA05F3C01851EBE37101F00045E1
:10023C0007D54FF0000EDCF1000C7EEB00006EEBEE
:10024C000101B1F5801F1BD3B1F5001F0CD3490878
:10025C005FEA30004FEA3C0C04F101044FEA4452CF
:10026C0012F5800F80F09A80BCF1004F08BF5FEA56
:10027C00500C50F1000041EB045141EA050130BD36
:10028C005FEA4C0C404141EB0101013C28BFB1F548
:10029C00801FE9D291F0000F04BF01460020B1FA93
:1002AC0081F308BF2033A3F10B03B3F120020CDA66
:1002BC000C3208DD02F1140CC2F10C0201FA0CF044
:1002CC0021FA02F10CE002F11402D8BFC2F1200CA9
:1002DC0001FA02F120FA0CFCDCBF41EA0C0190405F
:1002EC00E41AA2BF01EB0451294330BD6FEA0404A8
:1002FC001F3C1CDA0C340EDC04F11404C4F1200293
:10030C0020FA04F001FA02F340EA030021FA04F3A4
:10031C0045EA030130BDC4F10C04C4F1200220FAFB
:10032C0002F001FA04F340EA0300294630BD21FA39
:10033C0004F0294630BD94F0000F83F4801306BFFF
:10034C0081F480110134013D4EE77FEA645C18BFF3
:10035C007FEA655C29D094EA050F08BF90EA020F8A
:10036C0005D054EA000C04BF1946104630BD91EA82
:10037C00030F1EBF0021002030BD5FEA545C05D185
:10038C004000494128BF41F0004130BD14F58004C4
:10039C003CBF01F5801130BD01F0004545F0FE4138
:1003AC0041F470014FF0000030BD7FEA645C1ABF6D
:1003BC00194610467FEA655C1CBF0B46024650EAA4
:1003CC00013406BF52EA033591EA030F41F40021D0
:1003DC0030BD00BF90F0000F04BF0021704730B556
:1003EC004FF4806404F132044FF000054FF000012B
:1003FC0050E700BF90F0000F04BF0021704730B5EC
:10040C004FF4806404F1320410F0004548BF4042C0
:10041C004FF000013EE700BF42004FEAE2014FEA15
:10042C0031014FEA02701FBF12F07F4393F07F4FF0
:10043C0081F06051704732F07F4208BF704793F0F3
:10044C007F4F04BF41F40021704730B54FF4607406
:10045C0001F0004521F000411CE700BF50EA010209
:10046C0008BF704730B54FF000050AE050EA0102B2
:10047C0008BF704730B511F0004502D5404261EB22
:10048C0041014FF4806404F132045FEA915C3FF463
:10049C00D8AE4FF003025FEADC0C18BF03325FEA00
:1004AC00DC0C18BF033202EBDC02C2F1200300FAB1
:1004BC0003FC20FA02F001FA03FE40EA0E0021FAD6
:1004CC0002F11444BDE600BF70B54FF0FF0C4CF4C4
:1004DC00E06C1CEA11541DBF1CEA135594EA0C0F76
:1004EC0095EA0C0F00F0DEF82C4481EA030621EAB1
:1004FC004C5123EA4C5350EA013518BF52EA0335EC
:10050C0041F4801143F4801338D0A0FB02CE4FF09D
:10051C000005E1FB02E506F00042E0FB03E54FF0CD
:10052C000006E1FB03569CF0000F18BF4EF0010EC5
:10053C00A4F1FF04B6F5007F64F5407404D25FEAC1
:10054C004E0E6D4146EB060642EAC62141EA555174
:10055C004FEAC52040EA5E504FEACE2EB4F1FD0CB6
:10056C0088BFBCF5E06F1ED8BEF1004F08BF5FEA34
:10057C00500E50F1000041EB045170BD06F00046E6
:10058C0046EA010140EA020081EA0301B4EB5C0493
:10059C00C2BFD4EB0C0541EA045170BD41F480118B
:1005AC004FF0000E013C00F3AB8014F1360FDEBFB0
:1005BC00002001F0004170BDC4F10004203C35DA8C
:1005CC000C341BDC04F11404C4F1200500FA05F30F
:1005DC0020FA04F001FA05F240EA020001F00042B0
:1005EC0021F0004110EBD37021FA04F642EB060126
:1005FC005EEA430E08BF20EAD37070BDC4F10C0450
:10060C00C4F1200500FA04F320FA05F001FA04F213
:10061C0040EA020001F0004110EBD37041F10001FF
:10062C005EEA430E08BF20EAD37070BDC4F120050A
:10063C0000FA05F24EEA020E20FA04F301FA05F272
:10064C0043EA020321FA04F001F0004121FA04F21A
:10065C0020EA020000EBD3705EEA430E08BF20EAEA
:10066C00D37070BD94F0000F0FD101F00046400024
:10067C0041EB010111F4801F08BF013CF7D041EAA6
:10068C00060195F0000F18BF704703F000465200AA
:10069C0043EB030313F4801F08BF013DF7D043EA7B
:1006AC000603704794EA0C0F0CEA135518BF95EA31
:1006BC000C0F0CD050EA410618BF52EA4306D1D1B8
:1006CC0081EA030101F000414FF0000070BD50EAD7
:1006DC00410606BF1046194652EA430619D094EA61
:1006EC000C0F02D150EA013613D195EA0C0F05D14B
:1006FC0052EA03361CBF104619460AD181EA03019F
:10070C0001F0004141F0FE4141F470014FF0000056
:10071C0070BD41F0FE4141F4780170BD70B54FF0F1
:10072C00FF0C4CF4E06C1CEA11541DBF1CEA135571
:10073C0094EA0C0F95EA0C0F00F0A7F8A4EB050453
:10074C0081EA030E52EA03354FEA013100F088804A
:10075C004FEA03334FF0805545EA131343EA126313
:10076C004FEA022245EA111545EA10654FEA0026C8
:10077C000EF000419D4208BF964244F1FD0404F581
:10078C00407402D25B084FEA3202B61A65EB0305DD
:10079C005B084FEA32024FF480104FF4002CB6EB9A
:1007AC00020E75EB030E22BFB61A754640EA0C001A
:1007BC005B084FEA3202B6EB020E75EB030E22BF5A
:1007CC00B61A754640EA5C005B084FEA3202B6EB9B
:1007DC00020E75EB030E22BFB61A754640EA9C005A
:1007EC005B084FEA3202B6EB020E75EB030E22BF2A
:1007FC00B61A754640EADC0055EA060E18D04FEAE8
:10080C00051545EA16754FEA06164FEAC30343EA87
:10081C0052734FEAC2025FEA1C1CC0D111F4801F54
:10082C000BD141EA00014FF000004FF0004CB6E74D
:10083C0011F4801F04BF01430020B4F1FD0C88BFEC
:10084C00BCF5E06F3FF6AFAEB5EB030C04BFB6EBF7
:10085C00020C5FEA500C50F1000041EB045170BDEA
:10086C000EF0004E4EEA113114EB5C04C2BFD4EB17
:10087C000C0541EA045170BD41F480114FF0000E9B
:10088C00013C90E645EA060E8DE60CEA135594EA17
:10089C000C0F08BF95EA0C0F3FF43BAF94EA0C0F1A
:1008AC000AD150EA01347FF434AF95EA0C0F7FF48F
:1008BC0025AF104619462CE795EA0C0F06D152EAE3
:1008CC0003353FF4FDAE1046194622E750EA4106C7
:1008DC0018BF52EA43067FF4C5AE50EA41047FF4D8
:1008EC000DAF52EA43057FF4EBAE12E74FEA41023B
:1008FC0012F5001215D211D56FF47873B3EB625266
:10090C0012D94FEAC12343F0004343EA505311F08C
:10091C00004F23FA02F018BF404270474FF000001E
:10092C00704750EA013005D111F0004008BF6FF05C
:10093C00004070474FF00000704700BF80B58EB08C
:10094C000AAFF860084611461A4603467B810B46EF
:10095C003B811346FB801D4B1B78002B19D039892A
:10096C007A8900230893002307930023069300231E
:10097C000593BB8C04933B8C0393BB8B02933B8BF7
:10098C000193FB8800930B46F968012000F020F8D6
:10099C0018E039897A8900230893002307930023F0
:1009AC00069300230593BB8C04933B8C0393BB8B66
:1009BC0002933B8B0193FB8800930B46F968002054
:1009CC0000F006F800BF1037BD4680BD00000020C7
:1009DC0080B584B000AFB96011461A460346FB736C
:1009EC000B46BB811346FB801A4ABB8913801A4AFB
:1009FC00FB881380194A3B8B1380194ABB68136020
:100A0C00184ABB8B1380174A3B8C5380154ABB8CFE
:100A1C009380144A3B8DD380124ABB8D1381114AAB
:100A2C003B8E53810F4ABB8E93810E4A3B8FD381F1
:100A3C00FB7B002B03D00C4B00221A7002E00A4BFC
:100A4C0010221A700421142000F010F800BF103787
:100A5C00BD4680BD8200002084000020860000205E
:100A6C0098000020880000209C00002080B586B0F3
:100A7C0000AF03460A46FB711346BB71BB79012BD1
:100A8C0006D9774B1B7843F00803DAB2744B1A7013
:100A9C00744ABB791370FA79FB79403340210020FA
:100AAC0000F064F9704B1B78002B09D0BB79012B3B
:100ABC0006D16B4B1B7843F00403DAB2684B1A7007
:100ACC0000F0E4F803237B610123FB60674B1B7888
:100ADC00002B1BD0664B1A88664B1B8813439AB2AB
:100AEC00654B1B8813439AB2644B1B8813439AB211
:100AFC00624B5B8813439AB2604B9B8813439AB248
:100B0C005E4BDB8813439BB2BB602AE0584B1A88C0
:100B1C00584B1B8813439AB2574B1B8813439AB2FA
:100B2C00564B1B8813439AB2544B5B8813439AB2AF
:100B3C00524B9B8813439AB2504BDB8813439AB2A7
:100B4C004E4B1B8913439AB24C4B5B8913439AB29D
:100B5C004A4B9B8913439AB2484BDB8913439BB294
:100B6C00BB60474B1B6807F108021146184601F0A1
:100B7C007FFA322001F0D2F8414B1B683C4A1188B5
:100B8C000022184601F00FFC3D4B1B683A4A1188B5
:100B9C000022184601F007FC364B1B88FF2B07D0B0
:100BAC00374B1B68334A11880022184601F0FBFBB7
:100BBC002B4B1B7803F01003002B15D1032000F0F6
:100BCC00F5F9052001F0AAF8032000F0EFF9052053
:100BDC0001F0A4F8032000F0E9F9012001F09EF8DF
:100BEC00022000F0E3F91DE01D4B1B7843F02003BD
:100BFC00DBB2184600F055F9052001F08FF8184BC0
:100C0C001B7843F02003DBB2184600F04AF90120B0
:100C1C0001F084F8124B1B7843F02003DBB218462A
:100C2C0000F03FF90E4B1B7843F02003DBB2184663
:100C3C0000F037F9134B04221A7000F0F1F800F0B1
:100C4C00B3F8114B02221A700F4B1B7843F00403BC
:100C5C00DBB2184600F025F900BF1837BD4680BD41
:100C6C009C0000209F00002080000020000000203D
:100C7C0082000020840000208600002088000020D4
:100C8C00980000209D0000209E00002080B487B0BA
:100C9C0000AF2F4B1B682F4A93420CD12E4B9B69F4
:100CAC002D4A43F0040393612B4B9B6903F004031F
:100CBC007B617B6946E0264B1B68284A93420CD12A
:100CCC00254B9B69244A43F008039361224B9B6993
:100CDC0003F008033B613B6934E01D4B1B68204A61
:100CEC0093420CD11C4B9B691B4A43F0100393613C
:100CFC00194B9B6903F01003FB60FB6822E0144B5B
:100D0C001B68184A93420CD1134B9B69124A43F04F
:100D1C0020039361104B9B6903F02003BB60BB68FD
:100D2C0010E00B4B1B68104A93420BD10A4B9B698A
:100D3C00094A43F040039361074B9B6903F040035E
:100D4C007B607B6800BF1C37BD4680BC704700BF12
:100D5C00980000200008014000100240000C0140E7
:100D6C0000100140001401400018014080B485B00F
:100D7C0000AFF860B9607A603B60FB68DAB2094B8F
:100D8C001A70BB68DAB2074B5A707B68DAB2054B43
:100D9C009A703B68DAB2034BDA7000BF1437BD4669
:100DAC0080BC7047A000002080B500AF012000F08F
:100DBC0078F8022000F0B2FF00BF80BD80B584B08F
:100DCC0000AF03460A46FB711346BB710423FB605C
:100DDC00BB79FA689A4203D8FB68DBB2013BBB7162
:100DEC000D4B1B78BA799A4203D30B4B1B78013B02
:100DFC00BB71BB79094AD25CFB791344DBB25BB2A1
:100E0C0063F07F035BB2DBB2184600F04AF800BF18
:100E1C001037BD4680BD00BF9F000020A000002001
:100E2C0080B500AF084B1B7843F00403DAB2064BD5
:100E3C001A70054B1B7843F00803DBB2184600F020
:100E4C0030F800BF80BD00BF9D00002080B586B08B
:100E5C0000AF78607B68002B01D100231DE07B681C
:100E6C007B617868FFF76CF938610023FB600CE05C
:100E7C007B695A1C7A611B78184600F020F80346EF
:100E8C00002B08D0FB680133FB603B695A1E3A61AA
:100E9C00002BEDD100E000BFFB6818461837BD46AB
:100EAC0080BD80B582B000AF0346FB71FB79002199
:100EBC00184600F013F800BF0837BD4680BD80B55A
:100ECC0082B000AF0346FB71FB790121184600F09C
:100EDC0005F8012318460837BD4680BD80B582B0A1
:100EEC0000AF03460A46FB711346BB71164B1B68D9
:100EFC00164A1188BA79184601F055FA144B1B881A
:100F0C00FF2B07D0104B1B68114A11880022184682
:100F1C0001F049FA0F4B1B7803F01003002B04D09F
:100F2C00FB79184600F06CF809E0FB791B09DBB281
:100F3C00184600F03BF8FB79184600F037F800BF74
:100F4C000837BD4680BD00BF9800002082000020FD
:100F5C00840000209C00002080B500AF114B1B6862
:100F6C00114A11880022184601F01DFA012000F0E8
:100F7C00D5FE0C4B1B680C4A11880122184601F057
:100F8C0012FA012000F0CAFE064B1B68064A1188B3
:100F9C000022184601F007FA012000F0BFFE00BF46
:100FAC0080BD00BF980000208600002080B584B072
:100FBC0000AF0346FB710023FB6013E00E4B186877
:100FCC000E4AFB6832F81310FA79FB6842FA03F305
:100FDC00DBB203F00103DBB21A4601F0E4F9FB6863
:100FEC000133FB60FB68032BE8DDFFF7B5FF00BFA7
:100FFC001037BD4680BD00BF98000020880000203F
:10100C0080B584B000AF0346FB710023FB6013E096
:10101C000E4B18680E4AFB6832F81310FA79FB680D
:10102C0042FA03F3DBB203F00103DBB21A4601F020
:10103C00BAF9FB680133FB60FB68072BE8DDFFF7AF
:10104C008BFF00BF1037BD4680BD00BF980000204D
:10105C008800002080B588B000AF114BFB61F869A7
:10106C00FFF76EF8B861BB697B613B46BA691946FC
:10107C00F86900F0D9F87B69DBB20233DAB2394691
:10108C004FF4FA63074802F0F2FE0346FB740020AB
:10109C0000F0ACF9FB7C18462037BD4680BD00BF84
:1010AC00E84B0008A400002080B588B000AF114BBD
:1010BC00FB61F869FFF744F8B861BB697B613B469B
:1010CC00BA691946F86900F0AFF87B69DBB20233F4
:1010DC00DAB239464FF4FA63074802F0C8FE034609
:1010EC00FB74012000F082F9FB7C18462037BD46CA
:1010FC0080BD00BFF04B0008A400002080B588B074
:10110C0000AF164B1B78222B01D9002322E0144B85
:10111C00FB61F869FFF714F8B861BB697B613B466A
:10112C00BA691946F86900F07FF80C4B1B7801334B
:10113C00DAB20A4B1A707B69DBB20233DAB2394687
:10114C004FF4FA63074802F092FE0346FB7400F07A
:10115C001BF9FB7C18462037BD4680BDE5000020FE
:10116C00F44B0008A400002080B588B000AF164BEB
:10117C001B78052B01D8002322E0144BFB61F86986
:10118C00FEF7DEFFB861BB697B613B46BA69194665
:10119C00F86900F049F80C4B1B78013BDAB20A4BAA
:1011AC001A707B69DBB20233DAB239464FF4FA6358
:1011BC00074802F05CFE0346FB7400F0E5F8FB7C8C
:1011CC0018462037BD4680BDE5000020FC4B0008CA
:1011DC00A400002080B588B000AF114BFB61F8690A
:1011EC00FEF7AEFFB861BB697B613B46BA69194635
:1011FC00F86900F019F87B69DBB20233DAB23946D0
:10120C004FF4FA63074802F032FE0346FB744FF0CA
:10121C00FF3000F0EBF8FB7C18462037BD4680BD54
:10122C00084C0008A400002080B586B000AFF86020
:10123C00B9607A600023FB747B68DAB2BB681A7001
:10124C00BB6801337A68F968184603F05FF800232D
:10125C007B6109E0FA687B6913441A78FB7C534084
:10126C00FB747B6901337B617A697B689A42F1D3A9
:10127C007B680133BA681344FA7C1A7000BF1837C4
:10128C00BD4680BD80B584B000AF224A07F108038B
:10129C0092E8030018600433198002330A0C1A70A8
:1012AC001D4A3B1D1268114619800233120C1A702C
:1012BC001A4B3B6000210020FFF780FD07F108036B
:1012CC001846FFF7C3FD00210E20FFF777FD3B1DED
:1012DC001846FFF7BBFD3B461846FEF731FF0346A9
:1012EC005B08DBB2C3F10A03DBB203211846FFF73C
:1012FC0065FD3B461846FFF7A9FD00F013F800F01A
:10130C0043F8074B1B68184600F070F800BF103705
:10131C00BD4680BD0C4C0008144C00084F6666009E
:10132C000400002080B584B000AF00211020FFF72E
:10133C0045FD114B1B78092B08D80F4B1B781A460F
:10134C003B1D0E49184602F08DFF07E00A4B1B7837
:10135C001A463B1D0A49184602F084FF3B1D1846ED
:10136C00FFF774FDDF20FFF7AAFD0648FFF76EFDBF
:10137C0000BF1037BD4680BDE4000020184C0008AB
:10138C001C4C0008204C000880B584B000AF002134
:10139C000620FFF713FD114B1B78092B08D80F4BB8
:1013AC001B781A463B1D0E49184602F05BFF07E0FE
:1013BC000A4B1B781A463B1D0A49184602F052FF8D
:1013CC003B1D1846FFF742FDDF20FFF778FD06486E
:1013DC00FFF73CFD00BF1037BD4680BDE500002087
:1013EC00184C00081C4C0008204C000880B588B034
:1013FC0000AF7860354A07F1180392E8030083E8E0
:10140C000300334A07F1100392E8030083E803005A
:10141C00304A07F1080392E8030083E803007B6875
:10142C00002B17D107F118031846FEF789FE034667
:10143C005B08DBB2C3F10A03DBB203211846FFF7EA
:10144C00BDFC254B00221A6007F118031846FFF764
:10145C00FDFC36E07B68012B17D107F11003184611
:10146C00FEF76EFE03465B08DBB2C3F10A03DBB288
:10147C0003211846FFF7A2FC174B01221A6007F153
:10148C0010031846FFF7E2FC1BE07B68B3F1FF3F4B
:10149C0017D107F108031846FEF752FE03465B0806
:1014AC00DBB2C3F10A03DBB203211846FFF786FC5B
:1014BC00094B4FF0FF321A6007F108031846FFF78B
:1014CC00C5FC00BF2037BD4680BD00BF244C0008C2
:1014DC002C4C0008344C00080400002080B588B067
:1014EC0000AF07F1100300221A605A609A60DA60AC
:1014FC003A4B9B69394A43F010039361374B9B6914
:10150C0003F01003FB60FB68344B9B69334A43F0D8
:10151C0020039361314B9B6903F02003BB60BB68D4
:10152C002E4B9B692D4A43F0040393612B4B9B6913
:10153C0003F004037B607B68284B9B69274A43F0CC
:10154C0008039361254B9B6903F008033B603B68E0
:10155C0000224FF48041224800F025FF0122032194
:10156C00204800F020FF4FF480433B6101237B6156
:10157C000023BB610223FB6107F1100319461848D5
:10158C0000F076FD40F207633B6100237B61012391
:10159C00BB6107F110031946134800F069FD0323E2
:1015AC003B6101237B610023BB610223FB6107F1DB
:1015BC00100319460B4800F05BFD4FF480633B6150
:1015CC000A4B7B610223BB6107F1100319460548E6
:1015DC0000F04EFD00BF2037BD4680BD001002401C
:1015EC0000100140000C01400008014000001110E7
:1015FC0080B500AF084B1B68002B03D0064B1B6853
:10160C00012B06D14FF40071044800F0B5FE0346DF
:10161C0000E00123184680BD0400002000080140B2
:10162C0080B500AF084B1B68002B03D0064B1B6822
:10163C00012B06D14FF48061044800F09DFE034657
:10164C0000E00123184680BD040000200008014082
:10165C0080B500AF064B1B68002B05D00121054857
:10166C0000F08AFE034600E00123184680BD00BF4F
:10167C00040000200008014080B500AF064B1B6839
:10168C00012B05D00221054800F076FE034600E050
:10169C000123184680BD00BF040000200008014053
:1016AC0080B500AF0421034800F066FE03461846DF
:1016BC0080BD00BF00080140B0B5A2B004AF00F07F
:1016CC00CBFA00F0FBF8FFF709FF00F073F900F01C
:1016DC003AF96F4C3B46184602F011F925463C4648
:1016EC000FCC0FC50FCC0FC594E8070085E8070099
:1016FC00674B684A9A61664B674A1A60644B0122D1
:10170C009A80634B644A9A60614B02229A81604BC7
:10171C00614A1A615E4B4FF480629A825C4802F017
:10172C0072FC0346C82B02D05C48FFF78FFB5C4B66
:10173C0001221A80802303934023029320230193D8
:10174C00102300934FF48073FF224FF40071524822
:10175C00FFF7F4F8534B07F130041D460FCD0FC4BF
:10176C000FCD0FC40FCD0FC495E8070084E8070018
:10177C004D4B4FF0FF321A60FFF784FD444802F0E6
:10178C00CEFB4A4B1B78DBB2002B20D0484B3B677F
:10179C00464B00221A70386F02F0DCFC0346002B1B
:1017AC0015D0386F02F0D6FC0346A7F86E30B7F8A8
:1017BC006E30DAB23F4B1A70B7F86E301B0A9BB220
:1017CC00DAB23D4B1A70FFF7DFFDFFF7ABFD0023DC
:1017DC007B6758E07A6F13465B0013449B007833A9
:1017EC003B44443B1B6898470346002B1ED17A6F41
:1017FC0013465B0013449B0078333B44483B1B6807
:10180C00002B13D17A6F13465B0013449B00783383
:10181C003B44483B01221A607A6F13465B00134429
:10182C009B0078333B44403B1B6898477A6F1346C8
:10183C005B0013449B0078333B44443B1B68984744
:10184C000346012B14D17A6F13465B0013449B00A3
:10185C0078333B44483B1B68012B09D17A6F134604
:10186C005B0013449B0078333B44483B00221A60D6
:10187C00102200210E4802F015FD0A2000F04EFA4D
:10188C007B6F01337B677B6F042BA3D979E700BF98
:10189C00A4000020E8000020000C01403C4C000893
:1018AC00D00000204C4C000804000020E600002072
:1018BC00D4000020E5000020E400002080B590B0AA
:1018CC0000AF07F1180328220021184602F0EAFCA9
:1018DC003B1D00221A605A609A60DA601A6101237B
:1018EC00BB614FF48033FB6100233B620123BB627D
:1018FC0002237B634FF48033BB634FF4E013FB6331
:10190C0007F11803184600F07FFD0346002B01D0A9
:10191C0000F04AF80F237B600223BB600023FB60BE
:10192C004FF480633B6100237B613B1D0221184611
:10193C0000F0ECFF0346002B01D000F035F800BF9F
:10194C004037BD4680BD80B500AF0022002123206A
:10195C0000F0DFFA232000F0F8FA00220021282002
:10196C0000F0D7FA282000F0F0FA00BF80BD00008C
:10197C0080B582B000AF0346FB80FB88B3F5806F67
:10198C0007D110220549064802F0D5FA054B012271
:10199C001A7000BF0837BD4680BD00BFD4000020C0
:1019AC00A4000020E600002080B400AF72B600BF97
:1019BC0000BFFDE780B500AF174B184A1A60164BF5
:1019CC004FF482725A60144B00229A60124B002220
:1019DC00DA60114B00221A610F4B00225A610E4B38
:1019EC004FF400729A610C4B1022DA610A4B002200
:1019FC001A62094B00225A62074B00229A62064B6C
:101A0C000A22DA62044801F0DDF80346002B01D00B
:101A1C00FFF7CAFF00BF80BDE80000200030014086
:101A2C0080B588B000AF786007F1100300221A600F
:101A3C005A609A60DA607B681B681B4A93422FD10C
:101A4C001A4B9B69194A43F480539361174B9B695A
:101A5C0003F48053FB60FB68144B9B69134A43F0FF
:101A6C0004039361114B9B6903F00403BB60BB68D7
:101A7C00A0233B6102237B610323FB6107F110036D
:101A8C0019460B4800F0F4FA40233B6100237B61BC
:101A9C000023BB6107F110031946054800F0E8FA72
:101AAC0000BF2037BD4680BD003001400010024011
:101ABC000008014080B485B000AF154B9B69144AF7
:101ACC0043F001039361124B9B6903F00103BB606C
:101ADC00BB680F4BDB690E4A43F08053D3610C4B50
:101AEC00DB6903F080537B607B680A4B5B68FB60AF
:101AFC00FB6823F0E063FB60FB6843F00073FB6062
:101B0C00044AFB68536000BF1437BD4680BC704765
:101B1C00001002400000014080B400AF00BFFDE7A0
:101B2C0080B400AF00BFFDE780B400AF00BFFDE79D
:101B3C0080B400AF00BFFDE780B400AF00BFFDE78D
:101B4C0080B400AF00BFBD4680BC704780B400AF0E
:101B5C0000BFBD4680BC704780B400AF00BFBD461F
:101B6C0080BC704780B500AF00F0BCF800BF80BDF2
:101B7C0080B500AF024801F0AFFC00BF80BD00BFD4
:101B8C00E800002080B500AF4FF4806000F024FC2A
:101B9C0000BF80BD80B586B000AF7860144A154B8D
:101BAC00D31A7B617B693B61134B1B68002B02D101
:101BBC00114B124A1A60104B1A687B6813443A692D
:101BCC009A4207D202F076FB03460C221A604FF0C1
:101BDC00FF3309E0084B1B68FB60074B1A687B68F6
:101BEC001344054A1360FB6818461837BD4680BD80
:101BFC000050002000040000400100209002002052
:101C0C0080B400AF00BFBD4680BC7047FFF7F8FF43
:101C1C000B480C490C4A002302E0D458C45004333E
:101C2C00C4188C42F9D3094A094C002301E0136013
:101C3C000432A242FBD302F043FBFFF73DFD704799
:101C4C000000002064000020404E000864000020CA
:101C5C0090020020FEE7000080B500AF084B1B6827
:101C6C00074A43F010031360032000F047F90F20DC
:101C7C0000F008F8FFF71EFF0023184680BD00BFD8
:101C8C000020024080B582B000AF7860124B1A6819
:101C9C00124B1B7819464FF47A73B3FBF1F3B2FB7A
:101CAC00F3F3184600F05FF90346002B01D0012333
:101CBC000EE07B680F2B0AD8002279684FF0FF30BA
:101CCC0000F027F9064A7B681360002300E001232B
:101CDC0018460837BD4680BD0800002010000020C3
:101CEC000C00002080B400AF054B1B781A46054B46
:101CFC001B681344034A136000BFBD4680BC704789
:101D0C00100000204401002080B400AF024B1B687F
:101D1C001846BD4680BC70474401002080B584B095
:101D2C0000AF7860FFF7F0FFB8607B68FB60FB6882
:101D3C00B3F1FF3F05D00A4B1B781A46FB681344DE
:101D4C00FB6000BFFFF7E0FF0246BB68D31AFA68DE
:101D5C009A42F7D800BF00BF1037BD4680BD00BF08
:101D6C001000002080B485B000AF78607B6803F071
:101D7C000703FB600C4BDB68BB60BA684FF6FF03D4
:101D8C001340BB60FB681A02BB68134343F0BF638C
:101D9C0043F40033BB60044ABB68D36000BF143704
:101DAC00BD4680BC704700BF00ED00E080B400AFC2
:101DBC00044BDB681B0A03F007031846BD4680BCC6
:101DCC00704700BF00ED00E080B483B000AF034665
:101DDC00FB7197F90730002B0BDBFB7903F01F022B
:101DEC00064997F907305B09012000FA02F241F825
:101DFC00232000BF0C37BD4680BC704700E100E0DB
:101E0C0080B483B000AF03463960FB7197F907309B
:101E1C00002B0ADB3B68DAB20C4997F90730120148
:101E2C00D2B20B4483F800230AE03B68DAB20849CB
:101E3C00FB7903F00F03043B1201D2B20B441A7668
:101E4C0000BF0C37BD4680BC704700BF00E100E00E
:101E5C0000ED00E080B489B000AFF860B9607A6042
:101E6C00FB6803F00703FB61FB69C3F10703042B59
:101E7C0028BF0423BB61FB690433062B02D9FB6921
:101E8C00033B00E000237B614FF0FF32BB6902FA99
:101E9C0003F3DA43BB681A407B699A404FF0FF3179
:101EAC007B6901FA03F3D9437B680B401343184653
:101EBC002437BD4680BC704780B582B000AF7860D7
:101ECC007B68013BB3F1807F01D301230FE00A4A09
:101EDC007B68013B53600F214FF0FF30FFF790FF01
:101EEC00054B00229A60044B07221A600023184607
:101EFC000837BD4680BD00BF10E000E080B582B061
:101F0C0000AF78607868FFF72DFF00BF0837BD463B
:101F1C0080BD80B586B000AF0346B9607A60FB73B4
:101F2C0000237B61FFF742FF78617A68B9687869B2
:101F3C00FFF790FF024697F90F3011461846FFF74E
:101F4C005FFF00BF1837BD4680BD80B582B000AFC3
:101F5C000346FB7197F907301846FFF735FF00BFB2
:101F6C000837BD4680BD80B582B000AF7860786818
:101F7C00FFF7A2FF034618460837BD4680BD000098
:101F8C0080B584B000AF78600023FB737B6893F856
:101F9C002130DBB2022B05D07B6804229A6301232B
:101FAC00FB7351E07B681B681A687B681B6822F026
:101FBC000E021A607B681B681A687B681B6822F02B
:101FCC0001021A607B681B68224A934229D07B6805
:101FDC001B68214A934222D07B681B681F4A93429C
:101FEC001AD07B681B681E4A934212D07B681B6810
:101FFC001C4A93420AD07B681B681B4A934202D14D
:10200C004FF480130EE04FF080730BE04FF48033ED
:10201C0008E04FF4805305E04FF4807302E0102386
:10202C0000E00123114A53607B68012283F82120D0
:10203C007B68002283F820207B685B6B002B03D02D
:10204C007B685B6B78689847FB7B18461037BD46FE
:10205C0080BD00BF080002401C000240300002405E
:10206C0044000240580002406C0002400000024054
:10207C0080B48BB000AF7860396000237B620023A2
:10208C003B6269E101227B6A02FA03F3FB613B6864
:10209C001B68FA691340BB61BA69FB699A4240F04C
:1020AC0058813B685B689A4A93425ED0984A934247
:1020BC0075D8984A934258D0964A93426FD8964A0C
:1020CC00934252D0944A934269D8944A93424CD04A
:1020DC00924A934263D8924A934246D0904A934292
:1020EC005DD8122B2AD8122B59D801A252F823F002
:1020FC00772100085121000863210008A521000860
:10210C00AB210008AB210008AB210008AB21000873
:10211C00AB210008AB210008AB210008AB21000863
:10212C00AB210008AB210008AB210008AB21000853
:10213C00AB210008592100086D210008794A93420F
:10214C0013D02CE03B68DB683B6229E03B68DB6822
:10215C0004333B6224E03B68DB6808333B621FE0DE
:10216C003B68DB680C333B621AE03B689B68002BD6
:10217C0002D104233B6213E03B689B68012B05D121
:10218C0008233B627B68FA691A6109E008233B6209
:10219C007B68FA695A6103E000233B6200E000BFF0
:1021AC00BB69FF2B01D87B6801E07B6804337B6142
:1021BC00BB69FF2B02D87B6A9B0002E07B6A083B61
:1021CC009B003B617B691A680F213B6901FA03F3A1
:1021DC00DB431A40396A3B6901FA03F31A437B6902
:1021EC001A603B685B6803F08053002B00F0B180F1
:1021FC004D4B9B694C4A43F0010393614A4B9B69DD
:10220C0003F00103BB60BB68484A7B6A9B0802333E
:10221C0052F82330FB607B6A03F003039B000F2210
:10222C0002FA03F3DB43FA681340FB607B68404A15
:10223C00934213D07B683F4A93420DD07B683E4A51
:10224C00934207D07B683D4A934201D1032306E0B9
:10225C00042304E0022302E0012300E000237A6A55
:10226C0002F0030292009340FA681343FB602F497B
:10227C007B6A9B080233FA6841F823203B685B6851
:10228C0003F48013002B06D02D4B9A682C49BB69A4
:10229C0013438B6006E02A4B9A68BB69DB432849E1
:1022AC0013408B603B685B6803F40013002B06D073
:1022BC00234BDA682249BB691343CB6006E0204B01
:1022CC00DA68BB69DB431E491340CB603B685B6833
:1022DC0003F40033002B06D0194B5A681849BB691C
:1022EC0013434B6006E0164B5A68BB69DB43144939
:1022FC0013404B603B685B6803F48033002B21D0A8
:10230C000F4B1A680E49BB6913430B6021E000BFE9
:10231C0000003210000031100000221000002110CB
:10232C0000001210000011100010024000000140CB
:10233C0000080140000C0140001001400014014055
:10234C00000401400B4B1A68BB69DB43094913407D
:10235C000B607B6A01337B623B681A687B6A22FAEA
:10236C0003F3002B7FF48EAE00BF00BF2C37BD46AD
:10237C0080BC70470004014080B485B000AF786029
:10238C000B467B807B689A687B881340002B02D0BD
:10239C000123FB7301E00023FB73FB7B184614370E
:1023AC00BD4680BC704780B483B000AF78600B46EC
:1023BC007B8013467B707B78002B03D07A887B68FC
:1023CC001A6103E07B881A047B681A6100BF0C3722
:1023DC00BD4680BC7047000080B582B000AF03469C
:1023EC00FB80084B5A69FB881340002B06D0054A2A
:1023FC00FB885361FB881846FFF7BAFA00BF083711
:10240C00BD4680BD0004014080B586B000AF786049
:10241C007B68002B01D1012372E27B681B6803F0FF
:10242C000103002B00F08780924B5B6803F00C03D8
:10243C00042B0CD08F4B5B6803F00C03082B12D1D0
:10244C008C4B5B6803F48033B3F5803F0BD1894B25
:10245C001B6803F40033002B6CD07B685B68002B8B
:10246C0068D101234CE27B685B68B3F5803F06D1F1
:10247C00804B1B687F4A43F4803313602EE07B68EB
:10248C005B68002B0CD17B4B1B687A4A23F480339E
:10249C001360784B1B68774A23F4802313601DE08C
:1024AC007B685B68B3F5A02F0CD1724B1B68714A2B
:1024BC0043F4802313606F4B1B686E4A43F48033E4
:1024CC0013600BE06B4B1B686A4A23F48033136078
:1024DC00684B1B68674A23F4802313607B685B6836
:1024EC00002B13D0FFF710FC386108E0FFF70CFC51
:1024FC0002463B69D31A642B01D9032300E25D4BDE
:10250C001B6803F40033002BF0D014E0FFF7FCFB46
:10251C00386108E0FFF7F8FB02463B69D31A642BDD
:10252C0001D90323ECE1534B1B6803F40033002B5C
:10253C00F0D100E000BF7B681B6803F00203002BA6
:10254C0063D04C4B5B6803F00C03002B0BD0494B56
:10255C005B6803F00C03082B1CD1464B5B6803F43F
:10256C008033002B16D1434B1B6803F00203002B66
:10257C0005D07B681B69012B01D00123C0E13D4BC9
:10258C001B6823F0F8027B685B69DB003949134355
:10259C000B603AE07B681B69002B20D0364B012284
:1025AC001A60FFF7B1FB386108E0FFF7ADFB02469C
:1025BC003B69D31A022B01D90323A1E12D4B1B68D4
:1025CC0003F00203002BF0D02A4B1B6823F0F80217
:1025DC007B685B69DB00274913430B6015E0264BD6
:1025EC0000221A60FFF790FB386108E0FFF78CFBC4
:1025FC0002463B69D31A022B01D9032380E11D4B00
:10260C001B6803F00203002BF0D17B681B6803F0FE
:10261C000803002B3AD07B689B69002B19D0174B11
:10262C0001221A60FFF770FB386108E0FFF76CFBC2
:10263C0002463B69D31A022B01D9032360E10D4BEF
:10264C005B6A03F00203002BF0D0012000F09CFA2F
:10265C001CE00A4B00221A60FFF756FB38610FE0B2
:10266C00FFF752FB02463B69D31A022B08D903230E
:10267C0046E100BF0010024000004242800442428A
:10268C00924B5B6A03F00203002BE9D17B681B6859
:10269C0003F00403002B00F0A6800023FB758B4B8A
:1026AC00DB6903F08053002B0DD1884BDB69874A23
:1026BC0043F08053D361854BDB6903F08053BB60DF
:1026CC00BB680123FB75824B1B6803F48073002BE2
:1026DC0018D17F4B1B687E4A43F480731360FFF75D
:1026EC0013FB386108E0FFF70FFB02463B69D31A76
:1026FC00642B01D9032303E1754B1B6803F480732E
:10270C00002BF0D07B68DB68012B06D16F4B1B6A6A
:10271C006E4A43F0010313622DE07B68DB68002BEB
:10272C000CD16A4B1B6A694A23F001031362674B95
:10273C001B6A664A23F0040313621CE07B68DB68A7
:10274C00052B0CD1614B1B6A604A43F004031362E6
:10275C005E4B1B6A5D4A43F0010313620BE05B4B5B
:10276C001B6A5A4A23F001031362584B1B6A574ADF
:10277C0023F0040313627B68DB68002B15D0FFF792
:10278C00C3FA38610AE0FFF7BFFA02463B69D31A75
:10279C0041F28832934201D90323B1E04B4B1B6ABF
:1027AC0003F00203002BEED014E0FFF7ADFA386112
:1027BC000AE0FFF7A9FA02463B69D31A41F28832C4
:1027CC00934201D903239BE0404B1B6A03F00203A5
:1027DC00002BEED1FB7D012B05D13C4BDB693B4A39
:1027EC0023F08053D3617B68DB69002B00F087807A
:1027FC00364B5B6803F00C03082B61D07B68DB69FC
:10280C00022B46D1334B00221A60FFF77DFA386158
:10281C0008E0FFF779FA02463B69D31A022B01D97B
:10282C0003236DE0294B1B6803F00073002BF0D1E0
:10283C007B681B6AB3F5803F08D1244B5B6823F49B
:10284C0000327B689B68214913434B601F4B5B68CC
:10285C0023F474127B68196A7B685B6A0B431B490F
:10286C0013434B601B4B01221A60FFF74DFA386182
:10287C0008E0FFF749FA02463B69D31A022B01D94B
:10288C0003233DE0114B1B6803F00073002BF0D0C9
:10289C0035E0104B00221A60FFF736FA386108E079
:1028AC00FFF732FA02463B69D31A022B01D90323F4
:1028BC0026E0064B1B6803F00073002BF0D11EE0E2
:1028CC007B68DB69012B07D1012319E00010024062
:1028DC0000700040600042420B4B5B68FB60FB6881
:1028EC0003F480327B681B6A9A4206D1FB6803F4BE
:1028FC0070127B685B6A9A4201D0012300E00023CE
:10290C0018461837BD4680BD0010024080B584B013
:10291C0000AF786039607B68002B01D10123D0E0D7
:10292C006A4B1B6803F007033A689A4210D9674B4D
:10293C001B6823F0070265493B6813430B60634B2C
:10294C001B6803F007033A689A4201D00123B8E0F0
:10295C007B681B6803F00203002B20D07B681B688C
:10296C0003F00403002B05D0594B5B68584A43F421
:10297C00E06353607B681B6803F00803002B05D0F1
:10298C00534B5B68524A43F460535360504B5B6843
:10299C0023F0F0027B689B684D4913434B607B68C6
:1029AC001B6803F00103002B40D07B685B68012B94
:1029BC0007D1474B1B6803F40033002B15D10123BF
:1029CC007FE07B685B68022B07D1414B1B6803F0EF
:1029DC000073002B09D1012373E03D4B1B6803F0FE
:1029EC000203002B01D101236BE0394B5B6823F010
:1029FC0003027B685B68364913434B60FFF784F92D
:102A0C00F8600AE0FFF780F90246FB68D31A41F23E
:102A1C008832934201D9032353E02D4B5B6803F0BA
:102A2C000C027B685B689B009A42EBD1274B1B68BE
:102A3C0003F007033A689A4210D2244B1B6823F028
:102A4C00070222493B6813430B60204B1B6803F0C1
:102A5C0007033A689A4201D0012332E07B681B6875
:102A6C0003F00403002B08D0194B5B6823F4E062DD
:102A7C007B68DB68164913434B607B681B6803F06B
:102A8C000803002B09D0124B5B6823F460527B685F
:102A9C001B69DB000E4913434B6000F021F8024622
:102AAC000B4B5B681B0903F00F030A49CB5C22FA42
:102ABC0003F3094A1360094B1B681846FFF7E2F849
:102ACC00002318461037BD4680BD00BF00200240D1
:102ADC0000100240D84C0008080000200C00002018
:102AEC0080B487B000AF0023FB600023BB600023E1
:102AFC007B6100237B6000233B611E4B5B68FB60AA
:102B0C00FB6803F00C03042B02D0082B03D027E046
:102B1C00194B3B6127E0FB689B0C03F00F03174A32
:102B2C00D35C7B60FB6803F48033002B10D0114B1B
:102B3C005B685B0C03F00103114AD35CBB607B68E0
:102B4C000D4A03FB02F2BB68B2FBF3F37B6104E0BA
:102B5C007B680C4A02FB03F37B617B693B6102E0FF
:102B6C00054B3B6100BF3B6918461C37BD4680BC1A
:102B7C00704700BF0010024000127A00E84C0008B9
:102B8C00F84C000800093D0080B485B000AF7860B7
:102B9C000A4B1B680A4AA2FB03235B0A7A6802FBF6
:102BAC0003F3FB6000BFFB685A1EFA60002BF9D1DF
:102BBC0000BF00BF1437BD4680BC70470800002022
:102BCC00D34D621080B582B000AF78607B68002B6B
:102BDC0001D1012376E07B685B6A002B08D17B680E
:102BEC005B68B3F5827F09D07B680022DA6105E06F
:102BFC007B6800221A617B6800225A617B68002284
:102C0C009A627B6893F85130DBB2002B06D17B685B
:102C1C00002283F850207868FEF702FF7B680222BE
:102C2C0083F851207B681B681A687B681B6822F04C
:102C3C0040021A607B685B6803F482727B689B6855
:102C4C0003F404431A437B68DB6803F400631A4300
:102C5C007B681B6903F002031A437B685B6903F012
:102C6C0001031A437B689B6903F400731A437B6866
:102C7C00DB6903F038031A437B681B6A03F080039B
:102C8C0042EA03017B689B6A03F400527B681B6871
:102C9C000A431A607B689B691A0C7B681B6802F0FC
:102CAC0004025A607B681B68DA697B681B6822F433
:102CBC000062DA617B6800225A657B68012283F826
:102CCC005120002318460837BD4680BD80B588B01A
:102CDC0000AFF860B9603B601346FB80FFF714F857
:102CEC00F861FB887B83FB6893F85130DBB2012BD6
:102CFC0001D002232AE1BB68002B02D0FB88002BF9
:102D0C0001D1012322E1FB6893F85030012B01D152
:102D1C0002231BE1FB68012283F85020FB6803228D
:102D2C0083F85120FB6800225A65FB68BA681A6365
:102D3C00FB68FA889A86FB68FA88DA86FB680022B8
:102D4C009A63FB6800229A87FB680022DA87FB688B
:102D5C0000225A64FB6800221A64FB689B68B3F576
:102D6C00004F0FD1FB681B681A68FB681B6822F0C8
:102D7C0040021A60FB681B681A68FB681B6842F407
:102D8C0080421A60FB681B681B6803F04003402BF1
:102D9C0007D0FB681B681A68FB681B6842F040028E
:102DAC001A60FB68DB68B3F5006F52D1FB685B6897
:102DBC00002B02D07B8B012B45D1FB681B6B1A8837
:102DCC00FB681B68DA60FB681B6B9A1CFB681A6358
:102DDC00FB68DB8E9BB2013B9AB2FB68DA8632E071
:102DEC00FB681B689B6803F00203022B12D1FB6883
:102DFC001B6B1A88FB681B68DA60FB681B6B9A1CE0
:102E0C00FB681A63FB68DB8E9BB2013B9AB2FB68D2
:102E1C00DA8618E0FEF778FF0246FB69D31A3A68A7
:102E2C009A4203D83B68B3F1FF3F02D13B68002BB9
:102E3C0009D1FB68012283F85120FB68002283F83A
:102E4C005020032382E0FB68DB8E9BB2002BC7D1A2
:102E5C0053E0FB685B68002B02D07B8B012B47D1C6
:102E6C00FB681A6BFB681B680C3312781A70FB68D2
:102E7C001B6B5A1CFB681A63FB68DB8E9BB2013B15
:102E8C009AB2FB68DA8633E0FB681B689B6803F038
:102E9C000203022B13D1FB681A6BFB681B680C3303
:102EAC0012781A70FB681B6B5A1CFB681A63FB6860
:102EBC00DB8E9BB2013B9AB2FB68DA8618E0FEF718
:102ECC0023FF0246FB69D31A3A689A4203D83B683F
:102EDC00B3F1FF3F02D13B68002B09D1FB68012203
:102EEC0083F85120FB68002283F8502003232DE047
:102EFC00FB68DB8E9BB2002BC6D1FA693968F86887
:102F0C0000F0CCFC0346002B02D0FB6820225A6553
:102F1C00FB689B68002B0AD100237B61FB681B6854
:102F2C00DB687B61FB681B689B687B617B69FB686A
:102F3C00012283F85120FB68002283F85020FB68A3
:102F4C005B6D002B01D0012300E0002318462037D5
:102F5C00BD4680BD80B588B002AFF860B9603B60FB
:102F6C001346FB80FB6893F85130DBB2012B01D088
:102F7C00022304E1FB685B68B3F5827F12D1FB6826
:102F8C009B68002B0ED1FB68042283F85120FA8831
:102F9C003B6800931346BA68B968F86800F0F3F818
:102FAC000346ECE0FEF7B0FE7861BB68002B02D064
:102FBC00FB88002B01D10123E1E0FB6893F8503032
:102FCC00012B01D10223DAE0FB68012283F85020A7
:102FDC00FB68042283F85120FB6800225A65FB68C9
:102FEC00BA689A63FB68FA889A87FB68FA88DA876A
:102FFC00FB6800221A63FB6800229A86FB68002299
:10300C00DA86FB6800221A64FB6800225A64FB68AB
:10301C009B68B3F5004F0FD1FB681B681A68FB68FF
:10302C001B6822F040021A60FB681B681A68FB6878
:10303C001B6822F480421A60FB681B681B6803F053
:10304C004003402B07D0FB681B681A68FB681B68A1
:10305C0042F040021A60FB68DB68002B70D135E04F
:10306C00FB681B689B6803F00103012B15D1FB68FF
:10307C001B6803F10C02FB689B6B1278D2B21A70BE
:10308C00FB689B6B5A1CFB689A63FB68DB8F9BB2DB
:10309C00013B9AB2FB68DA8718E0FEF735FE024670
:1030AC007B69D31A3A689A4203D83B68B3F1FF3F65
:1030BC0002D13B68002B09D1FB68012283F8512017
:1030CC00FB68002283F85020032358E0FB68DB8F59
:1030DC009BB2002BC4D138E0FB681B689B6803F0E3
:1030EC000103012B13D1FB681B68DA68FB689B6B2F
:1030FC0092B21A80FB689B6B9A1CFB689A63FB6804
:10310C00DB8F9BB2013B9AB2FB68DA8718E0FEF7C3
:10311C00FBFD02467B69D31A3A689A4203D83B6896
:10312C00B3F1FF3F02D13B68002B09D1FB680122B0
:10313C0083F85120FB68002283F8502003231EE003
:10314C00FB68DB8F9BB2002BC6D17A693968F868B3
:10315C0000F052FB0346002B02D0FB6820225A657C
:10316C00FB68012283F85120FB68002283F8502071
:10317C00FB685B6D002B01D0012300E00023184697
:10318C001837BD4680BD80B58AB000AFF860B96015
:10319C007A607B8001237B62FEF7B6FD3862FB68A8
:1031AC0093F85130FB77FB685B68BB617B88FB82D3
:1031BC00FB7F012B0CD0BB69B3F5827F06D1FB687A
:1031CC009B68002B02D1FB7F042B01D002237FE1F3
:1031DC00BB68002B05D07B68002B02D07B88002BB2
:1031EC0001D1012374E1FB6893F85030012B01D11C
:1031FC0002236DE1FB68012283F85020FB6893F8F1
:10320C005130DBB2042B03D0FB68052283F851202C
:10321C00FB6800225A65FB687A689A63FB687A88B7
:10322C00DA87FB687A889A87FB68BA681A63FB6846
:10323C007A88DA86FB687A889A86FB6800221A6498
:10324C00FB6800225A64FB681B681B6803F0400390
:10325C00402B07D0FB681B681A68FB681B6842F0A0
:10326C0040021A60FB68DB68B3F5006F7ED1FB6827
:10327C005B68002B02D0FB8A012B6CD1FB681B6BAB
:10328C001A88FB681B68DA60FB681B6B9A1CFB686E
:10329C001A63FB68DB8E9BB2013B9AB2FB68DA8641
:1032AC0059E0FB681B689B6803F00203022B1BD1DF
:1032BC00FB68DB8E9BB2002B16D07B6A012B13D1E3
:1032CC00FB681B6B1A88FB681B68DA60FB681B6B5E
:1032DC009A1CFB681A63FB68DB8E9BB2013B9AB2AB
:1032EC00FB68DA8600237B62FB681B689B6803F033
:1032FC000103012B19D1FB68DB8F9BB2002B14D07F
:10330C00FB681B68DA68FB689B6B92B21A80FB68DF
:10331C009B6B9A1CFB689A63FB68DB8F9BB2013B2F
:10332C009AB2FB68DA8701237B62FEF7EDFC02465A
:10333C003B6AD31A3A6B9A420DD83B6BB3F1FF3F01
:10334C0009D0FB68012283F85120FB68002283F826
:10335C0050200323BCE0FB68DB8E9BB2002BA0D17A
:10336C00FB68DB8F9BB2002B9BD182E0FB685B6818
:10337C00002B02D0FB8A012B71D1FB681A6BFB6806
:10338C001B680C3312781A70FB681B6B5A1CFB6899
:10339C001A63FB68DB8E9BB2013B9AB2FB68DA8640
:1033AC005DE0FB681B689B6803F00203022B1CD1D9
:1033BC00FB68DB8E9BB2002B17D07B6A012B14D1E0
:1033CC00FB681A6BFB681B680C3312781A70FB686D
:1033DC001B6B5A1CFB681A63FB68DB8E9BB2013BB0
:1033EC009AB2FB68DA8600237B62FB681B689B68D9
:1033FC0003F00103012B19D1FB68DB8F9BB2002B6F
:10340C0014D0FB681B68DA68FB689B6BD2B21A702D
:10341C00FB689B6B5A1CFB689A63FB68DB8F9BB247
:10342C00013B9AB2FB68DA8701237B62FEF76CFCE6
:10343C0002463B6AD31A3A6B9A4203D83B6BB3F100
:10344C00FF3F02D13B6B002B09D1FB68012283F8B3
:10345C005120FB68002283F85020032338E0FB68DE
:10346C00DB8E9BB2002B9CD1FB68DB8F9BB2002BBD
:10347C0097D13A6A396BF86800F010FA0346002BC2
:10348C0008D0FB6820225A65FB68002283F8502084
:10349C0001231DE0FB689B68002B0AD100233B61D4
:1034AC00FB681B68DB683B61FB681B689B683B61C6
:1034BC003B69FB68012283F85120FB68002283F8EA
:1034CC005020FB685B6D002B01D0012300E0002332
:1034DC0018462837BD4680BD80B588B000AF7860EF
:1034EC007B681B685B68FB617B681B689B68BB61C6
:1034FC00BB6903F04003002B0ED1BB6903F0010341
:10350C00002B09D0FB6903F04003002B04D07B682F
:10351C001B6C78689847B7E0BB6903F00203002B7B
:10352C0009D0FB6903F08003002B04D07B685B6C33
:10353C0078689847A8E0BB6903F02003002B05D1FD
:10354C00BB6903F04003002B00F09E80FB6903F085
:10355C002003002B00F09880BB6903F04003002B84
:10356C0023D07B6893F85130DBB2032B11D07B68EE
:10357C005B6D43F004027B685A6500237B617B68BA
:10358C001B68DB687B617B681B689B687B617B6964
:10359C000BE000233B617B681B68DB683B617B684D
:1035AC001B689B683B613B696EE0BB6903F02003C1
:1035BC00002B14D07B685B6D43F001027B685A656D
:1035CC000023FB607B681B689B68FB607B681B6847
:1035DC001A687B681B6822F040021A60FB687B68E3
:1035EC005B6D002B4FD07B681B685A687B681B682F
:1035FC0022F0E0025A607B68012283F85120FB69BB
:10360C0003F00203002B04D1FB6903F00103002B30
:10361C0034D07B681B685A687B681B6822F00302F5
:10362C005A607B68DB6C002B11D07B68DB6C184A12
:10363C005A637B68DB6C1846FEF7A2FC0346002B32
:10364C0005D07B685B6D43F040027B685A657B68F4
:10365C009B6C002B16D07B689B6C0D4A5A637B6865
:10366C009B6C1846FEF78CFC0346002B0AD07B683B
:10367C005B6D43F040027B685A6503E0786800F0AC
:10368C0009F800E000BF00BF2037BD4680BD00BF79
:10369C00CD36000880B483B000AF786000BF0C3723
:1036AC00BD4680BC704780B483B000AF78607B6847
:1036BC0093F85130DBB218460C37BD4680BC7047CE
:1036CC0080B584B000AF78607B685B6AFB60FB6898
:1036DC000022DA87FB680022DA86F868FFF7DAFF47
:1036EC0000BF1037BD4680BD80B588B000AFF86014
:1036FC00B9603B601346FB71FEF706FB0246BB6AE2
:10370C009B1A3A681344FB61FEF7FEFAB861394B19
:10371C001B685B011B0DFA6902FB03F37B6154E030
:10372C003B68B3F1FF3F50D0FEF7EEFA0246BB699F
:10373C00D31AFA699A4202D9FB69002B3DD1FB6876
:10374C001B685A68FB681B6822F0E0025A60FB6831
:10375C005B68B3F5827F11D1FB689B68B3F5004FB2
:10376C0004D0FB689B68B3F5806F07D1FB681B68BE
:10377C001A68FB681B6822F040021A60FB689B6A9F
:10378C00B3F5005F0FD1FB681B681A68FB681B68F8
:10379C0022F400521A60FB681B681A68FB681B68ED
:1037AC0042F400521A60FB68012283F85120FB6836
:1037BC00002283F85020032317E07B69002B01D1F2
:1037CC000023FB617B69013B7B61FB681B689A688A
:1037DC00BB681340BA689A420CBF01230023DBB2CA
:1037EC001A46FB799A429BD1002318462037BD46D6
:1037FC0080BD00BF0800002080B586B002AFF86025
:10380C00B9607A60FB685B68B3F5827F11D1FB68A5
:10381C009B68B3F5004F04D0FB689B68B3F5806FD1
:10382C0007D1FB681B681A68FB681B6822F0400212
:10383C001A60FB685B68B3F5827F17D1FB689B68E5
:10384C00B3F5806F12D17B680093BB680022012115
:10385C00F868FFF749FF0346002B1AD0FB685B6D35
:10386C0043F02002FB685A65032313E07B68009346
:10387C00BB6800228021F868FFF736FF0346002B57
:10388C0007D0FB685B6D43F02002FB685A6503238D
:10389C0000E0002318461037BD4680BD80B586B0C9
:1038AC0002AFF860B9607A607B680093BB68012254
:1038BC000221F868FFF718FF0346002B07D0FB68BE
:1038CC005B6D43F02002FB685A65032313E07B68B1
:1038DC000093BB6800228021F868FFF705FF0346C0
:1038EC00002B07D0FB685B6D43F02002FB685A6528
:1038FC00032300E0002318461037BD4680BDB0B44A
:10390C008FB000AF786040F2B113FB62072387F8E9
:10391C003030072387F83130012387F83230FF230A
:10392C0087F83630642387F837300823BB867B68EA
:10393C001D4607F10C040FCC0FC50FCC0FC594E836
:10394C00070085E8070078683C37BD46B0BC704777
:10395C0080B584B000AF786039600121786800F0E0
:10396C00FEF90346BB73BB7BFB733B68002B07D193
:10397C00BB7B23F00703FB737B680022DA613EE01C
:10398C003B68012B0CD197F90E3023F007035BB287
:10399C0043F001035BB2FB737B680122DA612EE01A
:1039AC003B68032B0CD197F90E3023F007035BB265
:1039BC0043F003035BB2FB737B680322DA611EE006
:1039CC003B68052B0CD197F90E3023F007035BB243
:1039DC0043F005035BB2FB737B680522DA610EE0F2
:1039EC003B68062B0BD197F90E3023F007035BB223
:1039FC0043F006035BB2FB737B680622DA61FB7B48
:103A0C001A460121786800F0C4F900BF1037BD4692
:103A1C0080BD80B584B000AFF860B9603B601346E0
:103A2C00FB80FB681868FB689B8800221946FEF730
:103A3C00BAFCFB689869FA884FF4FA63B968FFF727
:103A4C0045F900BFFB689B691846FFF72CFE03463F
:103A5C00012BF7D1FB6898693A8B4FF4FA633968FC
:103A6C00FFF778FA00BFFB689B691846FFF71BFE4F
:103A7C000346012BF7D1FB681868FB689B88012271
:103A8C001946FEF790FC00BF1037BD4680BD80B5CF
:103A9C0084B000AFF860B9603B601346FB80FB68F4
:103AAC001868FB689B8800221946FEF77CFCFB68B3
:103ABC009869FA884FF4FA63B968FFF707F900BF01
:103ACC00FB689B691846FFF7EEFD0346012BF7D107
:103ADC00FB6898693A8B4FF4FA633968FFF7F6F88C
:103AEC0000BFFB689B691846FFF7DDFD0346012B01
:103AFC00F7D1FB681868FB689B8801221946FEF712
:103B0C0052FC00BF1037BD4680BD80B584B000AFFD
:103B1C0078600B46FB702621786800F020F903468C
:103B2C00BB73FB78002B04D0BB7B43F00803FB7307
:103B3C0003E0BB7B23F00803FB73FB7B1A462621B7
:103B4C00786800F026F90A20FEF7E8F800BF103775
:103B5C00BD4680BD80B596B000AF7860174A07F1BE
:103B6C00080311465022184600F0D0FB7B6893F8EE
:103B7C0024301A46012393401846FCF73BFC7B6823
:103B8C0093F82530DB0058333B44503BD3E90023FA
:103B9C00FCF7C4FD02460B4610461946FCF7A6FE80
:103BAC000346102BCCBF01230023DBB219467868E7
:103BBC00FFF7ABFF00BF5837BD4680BD884C0008EF
:103BCC0080B584B000AF786039603B68DB045B1172
:103BDC00FB60FB681B0CFB72FB7A1A4606217868AB
:103BEC0000F0D7F80520FEF799F8FB681B0AFB726A
:103BFC00FB7A1A460721786800F0CBF80520FEF70F
:103C0C008DF8FB68FB72FB7A1A460821786800F085
:103C1C00C0F80520FEF782F800BF1037BD4680BD06
:103C2C0080B584B000AF786039603B680C2B01DD47
:103C3C000C233B603B68062B01DC07233B601E21F9
:103C4C00786800F08CF80346FB730A20FEF766F8E0
:103C5C003B68DBB21B01DAB2FB7B03F00F03DBB278
:103C6C001344BB73BB7B1A461E21786800F091F895
:103C7C000A20FEF753F87868FFF76CFF00BF103787
:103C8C00BD4680BD80B582B000AF78600B46FB703E
:103C9C00FB781A460921786800F07BF80A20FEF7B9
:103CAC003DF800BF0837BD4680BD000080B584B02C
:103CBC0000AF78600B46FB700023FB73FB782C2B5A
:103CCC0001D82D23FB70FB78F02B01D9F023FB706E
:103CDC00FB78782B09D8FB782D3B124A82FB031218
:103CEC005210DB17D31AFB730BE0FB78F02B08D8C0
:103CFC00FB781E330B4A82FB03129210DB17D31A8C
:103D0C00FB73FB7B2033FB73FB7B1A460B21786820
:103D1C0000F03FF80A20FEF701F800BF1037BD464F
:103D2C0080BD00BF6766666680B584B000AF786002
:103D3C001E21786800F013F80346FB73FB7B43F0FD
:103D4C000703BB73BB7B1A461E21786800F021F871
:103D5C000A20FDF7E3FF00BF1037BD4680BD80B5DC
:103D6C0086B002AF78600B46FB70FB7803F07F03E4
:103D7C00DBB2BB7307F10F0307F10E0101220092B6
:103D8C0001227868FFF745FEFB7B18461037BD46CD
:103D9C0080BD80B586B002AF78600B46FB701346D1
:103DAC00BB70FB7863F07F03DBB2BB73BB78FB7338
:103DBC0007F10F0307F10E0101220092012278682E
:103DCC00FFF765FE00BF1037BD4680BD80B586B0DD
:103DDC0000AFF8607A601A460B46FB721346BB7252
:103DEC00FB7A63F07F03DBB2FB75FB681868FB683A
:103DFC009B8800221946FEF7D6FAFB68986907F1F2
:103E0C0017014FF4FA630122FEF760FF00BFFB6855
:103E1C009B691846FFF747FC0346012BF7D1FB685B
:103E2C009869BB7A9AB24FF4FA637968FEF74EFF41
:103E3C0000BFFB689B691846FFF735FC0346012B56
:103E4C00F7D1FB681868FB689B8801221946FEF7BE
:103E5C00AAFA00BF1837BD4680BD80B483B000AF4E
:103E6C007860012318460C37BD4680BC704780B57E
:103E7C0086B000AFF860B96011461A460B46FB716C
:103E8C001346BB80FB68DB697B610121F868FFF797
:103E9C005FFD0E21F868FFF762FF0346FB74FB7CA5
:103EAC001A460D21F868FFF774FFFB791A46222198
:103EBC00F868FFF76EFFFB79BA680021F868FFF726
:103ECC0085FF0321F868FFF743FD1221F868FFF71F
:103EDC0046FF0346FB74FB7C03F00803002B0AD05F
:103EEC0008221221F868FFF754FF7969F868FFF788
:103EFC002FFD01230FE0BB88013BBB80BB88002B4F
:103F0C0005D17969F868FFF723FD002303E0012050
:103F1C00FDF704FFD9E718461837BD4680BD80B5BC
:103F2C0082B000AF786005217868FFF711FD00BF03
:103F3C000837BD4680BD90B589B000AFF860B96058
:103F4C001346FB710023FB750023FB6107E0FB6943
:103F5C00BA68134400221A70FB690133FB61FB79C8
:103F6C00FA699A42F3DBFF221221F868FFF711FF7E
:103F7C000121F868FFF7ECFC1321F868FFF7EFFE5E
:103F8C000346BB751021F868FFF7E9FE03467B7505
:103F9C007B7D1A460D21F868FFF7FBFEBB7D002BDD
:103FAC0005D10521F868FFF7D3FC002327E0FA7947
:103FBC00BB7D934228BF1346FB750023BB610BE00E
:103FCC00BB69BA68D4180021F868FFF7C8FE03462D
:103FDC002370BB690133BB61FB7DBA699A42EFDB8D
:103FEC00FB7DBA68134400221A70FF221221F86874
:103FFC00FFF7CFFE0521F868FFF7AAFCFB7D1846FA
:10400C002437BD4690BD80B584B000AF7860786829
:10401C00FFF723FF0346002B00F096800021786801
:10402C00FFF796FC0A20FDF779FE01217868FFF76F
:10403C0096FE0346FB730A20FDF770FEFB7B63F0D4
:10404C007F03BB73BB7B1A4601217868FFF7A1FE87
:10405C006420FDF763FE7B681B6A19467868FFF7DE
:10406C00AFFD7B6893F82A3019467868FFF70AFE93
:10407C007B6893F82B3019467868FFF717FE2322DC
:10408C000C217868FFF785FE7868FFF74DFE7B689A
:10409C0093F8243019467868FFF7C2FDFF221F21E0
:1040AC007868FFF776FE0023BB737B6893F82530A6
:1040BC001B01DAB27B6893F826305B00DBB2134449
:1040CC00BB73BB7B1A461D217868FFF762FE7868CC
:1040DC00FFF740FD7B681B8D1B0A9BB2DBB21A46B7
:1040EC0020217868FFF755FE7B681B8DDBB21A46E2
:1040FC0021217868FFF74DFE40217868FFF72FFEED
:10410C000346FB73FB7B43F03F03BB73BB7B1A463D
:10411C0040217868FFF73DFE01217868FFF718FC15
:10412C007B680122DA610A20FDF7F8FD42217868EC
:10413C00FFF715FE0346FB73FB7B122B01D1C82343
:10414C0004E04FF4CA7301E040F2F713184610373D
:10415C00BD4680BD0A22002100F07AB8242B2DE93F
:10416C00F0478646904601D8012B06D100F0A2F804
:10417C00162303600020BDE8F0870D4633482A461D
:10418C0015F8014B065D16F00806F8D12D2C2DD133
:10419C0001262C78951C33F0100209D1302C2AD131
:1041AC002A7802F0DF02582A25D110236C780235C8
:1041BC00002206F1004C0CF1FF3CBCFBF3F910465D
:1041CC0003FB19CAA4F13007092F1BD83C46A342A4
:1041DC0027DD571C07D0814520D301D1A2451DDB1B
:1041EC00012200FB034015F8014BEBE72B2C04BF1D
:1041FC002C78951CCFE7002BDAD1302C0CBF082380
:10420C000A23D5E7A4F14107192F01D8373CDEE783
:10421C00A4F16107192F04D8573CD8E74FF0FF32AF
:10422C00E1E7531C08D122236046CEF80030B8F1E8
:10423C00000FA0D0691E06E006B14042B8F1000F95
:10424C0099D0002AF6D1C8F8001094E7FB4C00086E
:10425C0013460A46014602480068FFF77FBF00BFBD
:10426C00140000200EB46FF0004100B59CB01DABE3
:10427C0002900690079104910848094953F8042BC1
:10428C000591006802A9019300F0A0F90022029B9D
:10429C001A701CB05DF804EB03B0704714000020DA
:1042AC000802FFFF03460244934200D1704703F813
:1042BC00011BF9E7014B1868704700BF1400002080
:1042CC0070B500260C4D0D4C641BA410A64209D1F0
:1042DC0000F078FC00260A4D0A4C641BA410A64280
:1042EC0005D170BD55F8043B98470136EEE755F8FB
:1042FC00043B98470136F2E7384E0008384E000868
:10430C00384E00083C4E0008704770470A449142F2
:10431C0000F1FF3300D1704710B511F8014B9142F9
:10432C0003F8014FF9D110BD38B50546002940D02E
:10433C0051F8043C0C1F002BB8BFE41800F0DEF859
:10434C001C4A136833B9636014602846BDE83840D2
:10435C0000F0DAB8A34208D9206821188B4201BFBB
:10436C0019685B6809182160EDE71A465B680BB1A8
:10437C00A342FAD911685018A0420BD1206801440D
:10438C00501883421160E0D118685B6808441060D3
:10439C005360DAE702D90C232B60D6E7206821188A
:1043AC008B4201BF19685B68091821606360546017
:1043BC00CBE738BD8C02002070B50F4E0C4631682F
:1043CC00054611B900F0AAFB30602146284600F0E2
:1043DC00A5FB431C03D14FF0FF34204670BDC41C19
:1043EC0024F00304A042F8D0211A284600F096FBD2
:1043FC000130F2D1EFE700BF880200202DE9F8432D
:10440C00CD1C25F0030508350C2D38BF0C25002DCF
:10441C00064601DBA94204D90C2333600020BDE819
:10442C00F883DFF8D48000F069F8D8F800301C4627
:10443C0044BB29463046FFF7BFFF431C044658D106
:10444C00D8F800402746002F43D1002C4BD02368CE
:10445C003946304604EB030900F060FB814542D13C
:10446C00216830466D1A2946FFF7A6FF01303AD075
:10447C0023682B442360D8F800305A6862BBC8F814
:10448C0000700FE02268521B20D40B2A17D9611937
:10449C00A342256018BF5960636808BFC8F80010B4
:1044AC0062514B60304600F02FF804F10B00231DD5
:1044BC0020F00700C21A1CBF1B1AA350AFE762689A
:1044CC00A3420CBFC8F800205A60EBE7234664688F
:1044DC00AEE73C467F68B6E71A465B68A342FBD161
:1044EC0000235360DEE70C233046336000F00CF8F9
:1044FC0094E70560D6E700BF8C0200200148FFF767
:10450C0003BF00BF840200200148FFF7FEBE00BFBE
:10451C00840200202DE9F0471F468E688246BE4279
:10452C000C4690460B682DD8B1F90C2012F4906F04
:10453C0026D06569096905EB4505A3EB010905EB77
:10454C00D5757B1C4B446D109D4238BF1D465305E1
:10455C0027D52946FFF752FF064660B34A46216924
:10456C00FFF7D4FEA38923F4906343F08003A38167
:10457C0026614E4426603E466561A5EB0905A560A3
:10458C00BE4200D93E4632464146206800F0ACFAA5
:10459C000020A3689B1BA360236833442360BDE801
:1045AC00F0872A4600F0D8FA06460028E0D150469B
:1045BC002169FFF7B9FE0C23CAF80030A3894FF02C
:1045CC00FF3043F04003A381E9E700002DE9F04FF1
:1045DC0098468B8907461B060D4614469DB010D590
:1045EC000B6973B94021FFF709FF2860286130B9C6
:1045FC000C233B604FF0FF301DB0BDE8F08F402323
:10460C006B610023099320238DF8293030234FF060
:10461C000109CDF80C80DFF898818DF82A302346FB
:10462C009A4613F8012B0AB1252AF9D1BAEB040BDF
:10463C000BD05B46224629463846FFF76BFF01300C
:10464C0000F0A780099A5A4409929AF80030002B7E
:10465C0000F09F8000234FF0FF32CDE905230AF1D3
:10466C00010A049307938DF853301A93544605228C
:10467C0014F8011B4E4800F061FA049AD8B9D00620
:10468C0044BF20238DF85330110744BF2B238DF8E2
:10469C0053309AF800302A2B15D0544600204FF096
:1046AC000A0C079A214611F8013B303B092B4BD9D8
:1046BC00B0B1079214E0A0EB080309FA03F313431B
:1046CC00A2460493D2E7039B191D1B680391002B90
:1046DC00BBBF5B4242F0020207930793B8BF049240
:1046EC0023782E2B0AD163782A2B32D1039B0234E8
:1046FC001A1D1B68039243EAE3730593DFF8B4A019
:10470C0003225046217800F019FA38B14022049B5C
:10471C00A0EB0A00824013430134049314F8011BEC
:10472C00062225488DF8281000F008FA002836D00B
:10473C00224B1BBB039B073323F007030833039364
:10474C00099B334409936AE70C4601200CFB0232A7
:10475C00A8E700234FF00A0C1946013405932046B4
:10476C0010F8012B303A092A03D9002BC6D0059139
:10477C00C4E7044601230CFB0121F0E703AB0093D3
:10478C002A4638460E4B04A9AFF30080421C06465D
:10479C00D6D1AB895B063FF52DAF09982CE703AB5F
:1047AC0000932A463846064B04A900F07DF8EDE745
:1047BC00FB4D0008014E0008054E000800000000EB
:1047CC00214500082DE9F047164698468A680B6982
:1047DC0007469342B8BF1346336091F843200C460A
:1047EC00DDF820900AB1013333602368990642BF8B
:1047FC00336802333360256815F0060506D104F1E1
:10480C00190AE36832689B1AAB422BDC94F84330EC
:10481C002268003B18BF0123920630D4414638462B
:10482C0004F14302C847013023D02368226903F006
:10483C000603042B14BF002533684FF0000608BF95
:10484C00E56804F11A0408BFED1A54F8123C08BFCD
:10485C0025EAE5759342C4BF9B1AED18B5421AD1EF
:10486C00002008E00123524641463846C847013033
:10487C0003D14FF0FF30BDE8F0870135C1E73020A0
:10488C00E11881F843005A1C94F845102244023375
:10489C0082F84310C2E70123224641463846C847F6
:1048AC000130E6D00136D9E72DE9FF470F7E91465E
:1048BC00782F80460C469A460C9E01F1430207D88D
:1048CC00622F0AD8002F00F0D380582F00F0BA8046
:1048DC0004F1420684F842703AE0A7F16303152B09
:1048EC00F6D801A151F823F04D49000861490008A0
:1048FC00DD480008DD480008DD480008DD480008F8
:10490C0061490008DD480008DD480008DD48000862
:10491C00DD480008634A00088B4900081D4A00085E
:10492C00DD480008DD480008854A0008DD4800081D
:10493C008B490008DD480008DD480008254A0008BE
:10494C0033681A1D1B68326004F1420684F8423049
:10495C0001239EE033682068191D3160060601D5DD
:10496C001D6803E04506FBD5B3F90050002D03DAB2
:10497C002D236D4284F843300A23594811E02168F5
:10498C003368080653F8045B02D4490648BFADB23D
:10499C006F2F336014BF0A2308235148002184F879
:1049AC0043106668002EA8BF2168A660A4BF21F042
:1049BC00040121600DB9002E4BD01646B5FBF3F166
:1049CC0003FB1157C75D06F8017D2F46BB420D4610
:1049DC00F4D9082B0BD12368DF0708D5236961684C
:1049EC009942DEBF302306F8013C06F1FF36921BDC
:1049FC0022614B4621464046CDF800A003AAFFF7A2
:104A0C00E1FE01304AD14FF0FF3004B0BDE8F08731
:104A1C00236843F0200323607827324884F84570DC
:104A2C00236831681F0651F8045B02D45F0648BF47
:104A3C00ADB23160D90744BF43F0200323601DB1F0
:104A4C001023ABE72648E9E7236823F02003236013
:104A5C00F6E71646BDE733682568181D61693060B6
:104A6C002E061B6801D5196002E06806FBD519807B
:104A7C00002316462361BCE7336800211A1D3260FF
:104A8C001E686268304600F059F808B1801B6060FF
:104A9C0063682361002384F84330AAE73246494611
:104AAC0040462369D0470130ADD023689B0713D40F
:104ABC00E068039B9842B8BF1846A6E7012332462C
:104ACC0049464046D04701309DD00135E3680399F3
:104ADC005B1AAB42F2DCEBE7002504F11906F5E7B3
:104AEC000C4E00081D4E0008884210B501EB020464
:104AFC0002D98442234607D8431EA14208D011F89C
:104B0C00012B03F8012FF8E7014602448A4200D139
:104B1C0010BD13F8014D02F8014DF7E738B500232D
:104B2C00054D044608462B60FDF734F8431C02D1B2
:104B3C002B6803B1236038BD80020020034610B5FA
:104B4C00C9B202449342184601D1002003E0047814
:104B5C0001338C42F6D110BD2DE9F041804615464B
:104B6C000C4621B91146BDE8F041FFF747BC2AB904
:104B7C00FFF7DAFB00242046BDE8F08100F01AF8BC
:104B8C008542064602D8B5EB500FF4D8294640466C
:104B9C00FFF734FC07460028ECD0B5422A462146E4
:104BAC0028BF3246FFF7B2FB21464046FFF7BCFB5D
:104BBC003C46E0E751F8043C181F002BBCBF0B58D7
:104BCC00C0187047F8B500BFF8BC08BC9E467047CB
:0C4BDC00F8B500BFF8BC08BC9E4670474E
:104BE80048454154000000004143000054454D50E1
:104BF8005F55500054454D505F444F574E000000DC
:104C08004F46460053657470743A0000543A0000E9
:104C18002025640025640000430000004865617495
:104C2800204F6E00436F6F6C204F6E0020204F6640
:104C3800662020004C6F5261204661696C656421D2
:104C48000000000000000000FD1500080911000820
:104C5800000000002D160008751100080000000073
:104C68005D160008611000080000000085160008A5
:104C7800B510000800000000AD160008E11100089A
:104C88003333333333331F40CDCCCCCCCCCC24405E
:104C98003333333333332F40CDCCCCCCCCCC34402E
:104CA8000000000000403F409A99999999D94440E2
:104CB8000000000000404F400000000000405F403E
:104CC8000000000000406F400000000000407F40EE
:104CD80000000000000000000102030406070809A4
:104CE80002030405060708090A0B0C0D0E0F101025
:104CF80001020020202020202020202028282828E9
:104D08002820202020202020202020202020202093
:104D180020202088101010101010101010101010E3
:104D280010101004040404040404040404101010F3
:104D3800101010104141414141410101010101019F
:104D4800010101010101010101010101010110102D
:104D58001010101042424242424202020202020273
:104D680002020202020202020202020202021010FF
:104D780010102000000000000000000000000000EB
:104D8800000000000000000000000000000000001B
:104D9800000000000000000000000000000000000B
:104DA80000000000000000000000000000000000FB
:104DB80000000000000000000000000000000000EB
:104DC80000000000000000000000000000000000DB
:104DD80000000000000000000000000000000000CB
:104DE80000000000000000000000000000000000BB
:104DF800000000232D302B2000686C4C006566678E
:104E08004546470030313233343536373839414238
:104E1800434445460030313233343536373839610A
:084E280062636465660000008E
:084E30001CB3FF7F010000002C
:044E3800310100083C
:044E3C000D0100085C
:104E400001000000FFFFFFFF00127A0010000000C9
:104E500001000000180000200000000048010020B0
:104E6000B001002018020020000000000000000037
:104E70000000000000000000000000000000000032
:104E80000000000000000000000000000000000022
:104E90000000000000000000000000000000000012
:044EA000000000000E
:0400000508001C19BA
:00000001FF
